{
	"contracts/Crowdfunding.sol": {
		"Crowdfunding": {
			"abi": [
				{
					"anonymous": false,
					"inputs": [
						{
							"indexed": false,
							"internalType": "uint256",
							"name": "projectId",
							"type": "uint256"
						},
						{
							"indexed": false,
							"internalType": "uint256",
							"name": "amount",
							"type": "uint256"
						},
						{
							"indexed": false,
							"internalType": "address",
							"name": "donor",
							"type": "address"
						}
					],
					"name": "DonationReceived",
					"type": "event"
				},
				{
					"anonymous": false,
					"inputs": [
						{
							"indexed": false,
							"internalType": "uint256",
							"name": "projectId",
							"type": "uint256"
						},
						{
							"indexed": false,
							"internalType": "uint256",
							"name": "amount",
							"type": "uint256"
						}
					],
					"name": "FundsWithdrawn",
					"type": "event"
				},
				{
					"anonymous": false,
					"inputs": [
						{
							"indexed": false,
							"internalType": "uint256",
							"name": "id",
							"type": "uint256"
						},
						{
							"indexed": false,
							"internalType": "string",
							"name": "name",
							"type": "string"
						},
						{
							"indexed": false,
							"internalType": "string",
							"name": "description",
							"type": "string"
						},
						{
							"indexed": false,
							"internalType": "uint256",
							"name": "targetAmount",
							"type": "uint256"
						},
						{
							"indexed": false,
							"internalType": "uint256",
							"name": "deadline",
							"type": "uint256"
						},
						{
							"indexed": false,
							"internalType": "address",
							"name": "owner",
							"type": "address"
						}
					],
					"name": "ProjectCreated",
					"type": "event"
				},
				{
					"inputs": [
						{
							"internalType": "string",
							"name": "_name",
							"type": "string"
						},
						{
							"internalType": "string",
							"name": "_description",
							"type": "string"
						},
						{
							"internalType": "uint256",
							"name": "_targetAmount",
							"type": "uint256"
						},
						{
							"internalType": "uint256",
							"name": "_durationInDays",
							"type": "uint256"
						}
					],
					"name": "createProject",
					"outputs": [],
					"stateMutability": "nonpayable",
					"type": "function"
				},
				{
					"inputs": [
						{
							"internalType": "uint256",
							"name": "_projectId",
							"type": "uint256"
						}
					],
					"name": "donate",
					"outputs": [],
					"stateMutability": "payable",
					"type": "function"
				},
				{
					"inputs": [],
					"name": "projectCount",
					"outputs": [
						{
							"internalType": "uint256",
							"name": "",
							"type": "uint256"
						}
					],
					"stateMutability": "view",
					"type": "function"
				},
				{
					"inputs": [
						{
							"internalType": "uint256",
							"name": "",
							"type": "uint256"
						}
					],
					"name": "projects",
					"outputs": [
						{
							"internalType": "uint256",
							"name": "id",
							"type": "uint256"
						},
						{
							"internalType": "string",
							"name": "name",
							"type": "string"
						},
						{
							"internalType": "string",
							"name": "description",
							"type": "string"
						},
						{
							"internalType": "uint256",
							"name": "targetAmount",
							"type": "uint256"
						},
						{
							"internalType": "uint256",
							"name": "currentAmount",
							"type": "uint256"
						},
						{
							"internalType": "uint256",
							"name": "deadline",
							"type": "uint256"
						},
						{
							"internalType": "address payable",
							"name": "owner",
							"type": "address"
						}
					],
					"stateMutability": "view",
					"type": "function"
				},
				{
					"inputs": [
						{
							"internalType": "uint256",
							"name": "_projectId",
							"type": "uint256"
						}
					],
					"name": "withdrawFunds",
					"outputs": [],
					"stateMutability": "nonpayable",
					"type": "function"
				}
			],
			"devdoc": {
				"kind": "dev",
				"methods": {},
				"version": 1
			},
			"evm": {
				"assembly": "    /* \"contracts/Crowdfunding.sol\":31:2190  contract Crowdfunding {... */\n  mstore(0x40, 0x80)\n  callvalue\n  dup1\n  iszero\n  tag_1\n  jumpi\n  0x00\n  dup1\n  revert\ntag_1:\n  pop\n  dataSize(sub_0)\n  dup1\n  dataOffset(sub_0)\n  0x00\n  codecopy\n  0x00\n  return\nstop\n\nsub_0: assembly {\n        /* \"contracts/Crowdfunding.sol\":31:2190  contract Crowdfunding {... */\n      mstore(0x40, 0x80)\n      jumpi(tag_1, lt(calldatasize, 0x04))\n      shr(0xe0, calldataload(0x00))\n      dup1\n      0x107046bd\n      eq\n      tag_2\n      jumpi\n      dup1\n      0x155dd5ee\n      eq\n      tag_3\n      jumpi\n      dup1\n      0x36fbad26\n      eq\n      tag_4\n      jumpi\n      dup1\n      0x94ba9709\n      eq\n      tag_5\n      jumpi\n      dup1\n      0xf14faf6f\n      eq\n      tag_6\n      jumpi\n    tag_1:\n      0x00\n      dup1\n      revert\n        /* \"contracts/Crowdfunding.sol\":273:313  mapping(uint => Project) public projects */\n    tag_2:\n      callvalue\n      dup1\n      iszero\n      tag_7\n      jumpi\n      0x00\n      dup1\n      revert\n    tag_7:\n      pop\n      tag_8\n      0x04\n      dup1\n      calldatasize\n      sub\n      dup2\n      add\n      swap1\n      tag_9\n      swap2\n      swap1\n      tag_10\n      jump\t// in\n    tag_9:\n      tag_11\n      jump\t// in\n    tag_8:\n      mload(0x40)\n      tag_12\n      swap8\n      swap7\n      swap6\n      swap5\n      swap4\n      swap3\n      swap2\n      swap1\n      tag_13\n      jump\t// in\n    tag_12:\n      mload(0x40)\n      dup1\n      swap2\n      sub\n      swap1\n      return\n        /* \"contracts/Crowdfunding.sol\":1631:2187  function withdrawFunds(uint _projectId) public {... */\n    tag_3:\n      callvalue\n      dup1\n      iszero\n      tag_14\n      jumpi\n      0x00\n      dup1\n      revert\n    tag_14:\n      pop\n      tag_15\n      0x04\n      dup1\n      calldatasize\n      sub\n      dup2\n      add\n      swap1\n      tag_16\n      swap2\n      swap1\n      tag_10\n      jump\t// in\n    tag_16:\n      tag_17\n      jump\t// in\n    tag_15:\n      stop\n        /* \"contracts/Crowdfunding.sol\":320:344  uint public projectCount */\n    tag_4:\n      callvalue\n      dup1\n      iszero\n      tag_18\n      jumpi\n      0x00\n      dup1\n      revert\n    tag_18:\n      pop\n      tag_19\n      tag_20\n      jump\t// in\n    tag_19:\n      mload(0x40)\n      tag_21\n      swap2\n      swap1\n      tag_22\n      jump\t// in\n    tag_21:\n      mload(0x40)\n      dup1\n      swap2\n      sub\n      swap1\n      return\n        /* \"contracts/Crowdfunding.sol\":665:1222  function createProject(string memory _name, string memory _description, uint _targetAmount, uint _durationInDays) public {... */\n    tag_5:\n      callvalue\n      dup1\n      iszero\n      tag_23\n      jumpi\n      0x00\n      dup1\n      revert\n    tag_23:\n      pop\n      tag_24\n      0x04\n      dup1\n      calldatasize\n      sub\n      dup2\n      add\n      swap1\n      tag_25\n      swap2\n      swap1\n      tag_26\n      jump\t// in\n    tag_25:\n      tag_27\n      jump\t// in\n    tag_24:\n      stop\n        /* \"contracts/Crowdfunding.sol\":1230:1623  function donate(uint _projectId) public payable {... */\n    tag_6:\n      tag_28\n      0x04\n      dup1\n      calldatasize\n      sub\n      dup2\n      add\n      swap1\n      tag_29\n      swap2\n      swap1\n      tag_10\n      jump\t// in\n    tag_29:\n      tag_30\n      jump\t// in\n    tag_28:\n      stop\n        /* \"contracts/Crowdfunding.sol\":273:313  mapping(uint => Project) public projects */\n    tag_11:\n      mstore(0x20, 0x00)\n      dup1\n      0x00\n      mstore\n      keccak256(0x00, 0x40)\n      0x00\n      swap2\n      pop\n      swap1\n      pop\n      dup1\n      0x00\n      add\n      sload\n      swap1\n      dup1\n      0x01\n      add\n      dup1\n      sload\n      tag_31\n      swap1\n      tag_32\n      jump\t// in\n    tag_31:\n      dup1\n      0x1f\n      add\n      0x20\n      dup1\n      swap2\n      div\n      mul\n      0x20\n      add\n      mload(0x40)\n      swap1\n      dup2\n      add\n      0x40\n      mstore\n      dup1\n      swap3\n      swap2\n      swap1\n      dup2\n      dup2\n      mstore\n      0x20\n      add\n      dup3\n      dup1\n      sload\n      tag_33\n      swap1\n      tag_32\n      jump\t// in\n    tag_33:\n      dup1\n      iszero\n      tag_34\n      jumpi\n      dup1\n      0x1f\n      lt\n      tag_35\n      jumpi\n      0x0100\n      dup1\n      dup4\n      sload\n      div\n      mul\n      dup4\n      mstore\n      swap2\n      0x20\n      add\n      swap2\n      jump(tag_34)\n    tag_35:\n      dup3\n      add\n      swap2\n      swap1\n      0x00\n      mstore\n      keccak256(0x00, 0x20)\n      swap1\n    tag_36:\n      dup2\n      sload\n      dup2\n      mstore\n      swap1\n      0x01\n      add\n      swap1\n      0x20\n      add\n      dup1\n      dup4\n      gt\n      tag_36\n      jumpi\n      dup3\n      swap1\n      sub\n      0x1f\n      and\n      dup3\n      add\n      swap2\n    tag_34:\n      pop\n      pop\n      pop\n      pop\n      pop\n      swap1\n      dup1\n      0x02\n      add\n      dup1\n      sload\n      tag_37\n      swap1\n      tag_32\n      jump\t// in\n    tag_37:\n      dup1\n      0x1f\n      add\n      0x20\n      dup1\n      swap2\n      div\n      mul\n      0x20\n      add\n      mload(0x40)\n      swap1\n      dup2\n      add\n      0x40\n      mstore\n      dup1\n      swap3\n      swap2\n      swap1\n      dup2\n      dup2\n      mstore\n      0x20\n      add\n      dup3\n      dup1\n      sload\n      tag_38\n      swap1\n      tag_32\n      jump\t// in\n    tag_38:\n      dup1\n      iszero\n      tag_39\n      jumpi\n      dup1\n      0x1f\n      lt\n      tag_40\n      jumpi\n      0x0100\n      dup1\n      dup4\n      sload\n      div\n      mul\n      dup4\n      mstore\n      swap2\n      0x20\n      add\n      swap2\n      jump(tag_39)\n    tag_40:\n      dup3\n      add\n      swap2\n      swap1\n      0x00\n      mstore\n      keccak256(0x00, 0x20)\n      swap1\n    tag_41:\n      dup2\n      sload\n      dup2\n      mstore\n      swap1\n      0x01\n      add\n      swap1\n      0x20\n      add\n      dup1\n      dup4\n      gt\n      tag_41\n      jumpi\n      dup3\n      swap1\n      sub\n      0x1f\n      and\n      dup3\n      add\n      swap2\n    tag_39:\n      pop\n      pop\n      pop\n      pop\n      pop\n      swap1\n      dup1\n      0x03\n      add\n      sload\n      swap1\n      dup1\n      0x04\n      add\n      sload\n      swap1\n      dup1\n      0x05\n      add\n      sload\n      swap1\n      dup1\n      0x06\n      add\n      0x00\n      swap1\n      sload\n      swap1\n      0x0100\n      exp\n      swap1\n      div\n      0xffffffffffffffffffffffffffffffffffffffff\n      and\n      swap1\n      pop\n      dup8\n      jump\t// out\n        /* \"contracts/Crowdfunding.sol\":1631:2187  function withdrawFunds(uint _projectId) public {... */\n    tag_17:\n        /* \"contracts/Crowdfunding.sol\":1689:1712  Project storage project */\n      0x00\n        /* \"contracts/Crowdfunding.sol\":1715:1723  projects */\n      dup1\n        /* \"contracts/Crowdfunding.sol\":1715:1735  projects[_projectId] */\n      0x00\n        /* \"contracts/Crowdfunding.sol\":1724:1734  _projectId */\n      dup4\n        /* \"contracts/Crowdfunding.sol\":1715:1735  projects[_projectId] */\n      dup2\n      mstore\n      0x20\n      add\n      swap1\n      dup2\n      mstore\n      0x20\n      add\n      0x00\n      keccak256\n        /* \"contracts/Crowdfunding.sol\":1689:1735  Project storage project = projects[_projectId] */\n      swap1\n      pop\n        /* \"contracts/Crowdfunding.sol\":1772:1779  project */\n      dup1\n        /* \"contracts/Crowdfunding.sol\":1772:1788  project.deadline */\n      0x05\n      add\n      sload\n        /* \"contracts/Crowdfunding.sol\":1754:1769  block.timestamp */\n      timestamp\n        /* \"contracts/Crowdfunding.sol\":1754:1788  block.timestamp > project.deadline */\n      gt\n        /* \"contracts/Crowdfunding.sol\":1746:1817  require(block.timestamp > project.deadline, \"Deadline has not passed.\") */\n      tag_43\n      jumpi\n      mload(0x40)\n      0x08c379a000000000000000000000000000000000000000000000000000000000\n      dup2\n      mstore\n      0x04\n      add\n      tag_44\n      swap1\n      tag_45\n      jump\t// in\n    tag_44:\n      mload(0x40)\n      dup1\n      swap2\n      sub\n      swap1\n      revert\n    tag_43:\n        /* \"contracts/Crowdfunding.sol\":1850:1857  project */\n      dup1\n        /* \"contracts/Crowdfunding.sol\":1850:1863  project.owner */\n      0x06\n      add\n      0x00\n      swap1\n      sload\n      swap1\n      0x0100\n      exp\n      swap1\n      div\n      0xffffffffffffffffffffffffffffffffffffffff\n      and\n        /* \"contracts/Crowdfunding.sol\":1836:1863  msg.sender == project.owner */\n      0xffffffffffffffffffffffffffffffffffffffff\n      and\n        /* \"contracts/Crowdfunding.sol\":1836:1846  msg.sender */\n      caller\n        /* \"contracts/Crowdfunding.sol\":1836:1863  msg.sender == project.owner */\n      0xffffffffffffffffffffffffffffffffffffffff\n      and\n      eq\n        /* \"contracts/Crowdfunding.sol\":1828:1910  require(msg.sender == project.owner, \"Only the project owner can withdraw funds.\") */\n      tag_46\n      jumpi\n      mload(0x40)\n      0x08c379a000000000000000000000000000000000000000000000000000000000\n      dup2\n      mstore\n      0x04\n      add\n      tag_47\n      swap1\n      tag_48\n      jump\t// in\n    tag_47:\n      mload(0x40)\n      dup1\n      swap2\n      sub\n      swap1\n      revert\n    tag_46:\n        /* \"contracts/Crowdfunding.sol\":1954:1961  project */\n      dup1\n        /* \"contracts/Crowdfunding.sol\":1954:1974  project.targetAmount */\n      0x03\n      add\n      sload\n        /* \"contracts/Crowdfunding.sol\":1929:1936  project */\n      dup2\n        /* \"contracts/Crowdfunding.sol\":1929:1950  project.currentAmount */\n      0x04\n      add\n      sload\n        /* \"contracts/Crowdfunding.sol\":1929:1974  project.currentAmount >= project.targetAmount */\n      lt\n      iszero\n        /* \"contracts/Crowdfunding.sol\":1921:2004  require(project.currentAmount >= project.targetAmount, \"Funding goal not reached.\") */\n      tag_49\n      jumpi\n      mload(0x40)\n      0x08c379a000000000000000000000000000000000000000000000000000000000\n      dup2\n      mstore\n      0x04\n      add\n      tag_50\n      swap1\n      tag_51\n      jump\t// in\n    tag_50:\n      mload(0x40)\n      dup1\n      swap2\n      sub\n      swap1\n      revert\n    tag_49:\n        /* \"contracts/Crowdfunding.sol\":2017:2028  uint amount */\n      0x00\n        /* \"contracts/Crowdfunding.sol\":2031:2038  project */\n      dup2\n        /* \"contracts/Crowdfunding.sol\":2031:2052  project.currentAmount */\n      0x04\n      add\n      sload\n        /* \"contracts/Crowdfunding.sol\":2017:2052  uint amount = project.currentAmount */\n      swap1\n      pop\n        /* \"contracts/Crowdfunding.sol\":2087:2088  0 */\n      0x00\n        /* \"contracts/Crowdfunding.sol\":2063:2070  project */\n      dup3\n        /* \"contracts/Crowdfunding.sol\":2063:2084  project.currentAmount */\n      0x04\n      add\n        /* \"contracts/Crowdfunding.sol\":2063:2088  project.currentAmount = 0 */\n      dup2\n      swap1\n      sstore\n      pop\n        /* \"contracts/Crowdfunding.sol\":2099:2106  project */\n      dup2\n        /* \"contracts/Crowdfunding.sol\":2099:2112  project.owner */\n      0x06\n      add\n      0x00\n      swap1\n      sload\n      swap1\n      0x0100\n      exp\n      swap1\n      div\n      0xffffffffffffffffffffffffffffffffffffffff\n      and\n        /* \"contracts/Crowdfunding.sol\":2099:2121  project.owner.transfer */\n      0xffffffffffffffffffffffffffffffffffffffff\n      and\n        /* \"contracts/Crowdfunding.sol\":2099:2129  project.owner.transfer(amount) */\n      0x08fc\n        /* \"contracts/Crowdfunding.sol\":2122:2128  amount */\n      dup3\n        /* \"contracts/Crowdfunding.sol\":2099:2129  project.owner.transfer(amount) */\n      swap1\n      dup2\n      iszero\n      mul\n      swap1\n      mload(0x40)\n      0x00\n      mload(0x40)\n      dup1\n      dup4\n      sub\n      dup2\n      dup6\n      dup9\n      dup9\n      call\n      swap4\n      pop\n      pop\n      pop\n      pop\n      iszero\n      dup1\n      iszero\n      tag_53\n      jumpi\n      returndatasize\n      0x00\n      dup1\n      returndatacopy\n      revert(0x00, returndatasize)\n    tag_53:\n      pop\n        /* \"contracts/Crowdfunding.sol\":2145:2179  FundsWithdrawn(_projectId, amount) */\n      0xd66662c0ded9e58fd31d5e44944bcfd07ffc15e6927ecc1382e7941cb7bd24c4\n        /* \"contracts/Crowdfunding.sol\":2160:2170  _projectId */\n      dup4\n        /* \"contracts/Crowdfunding.sol\":2172:2178  amount */\n      dup3\n        /* \"contracts/Crowdfunding.sol\":2145:2179  FundsWithdrawn(_projectId, amount) */\n      mload(0x40)\n      tag_54\n      swap3\n      swap2\n      swap1\n      tag_55\n      jump\t// in\n    tag_54:\n      mload(0x40)\n      dup1\n      swap2\n      sub\n      swap1\n      log1\n        /* \"contracts/Crowdfunding.sol\":1678:2187  {... */\n      pop\n      pop\n        /* \"contracts/Crowdfunding.sol\":1631:2187  function withdrawFunds(uint _projectId) public {... */\n      pop\n      jump\t// out\n        /* \"contracts/Crowdfunding.sol\":320:344  uint public projectCount */\n    tag_20:\n      sload(0x01)\n      dup2\n      jump\t// out\n        /* \"contracts/Crowdfunding.sol\":665:1222  function createProject(string memory _name, string memory _description, uint _targetAmount, uint _durationInDays) public {... */\n    tag_27:\n        /* \"contracts/Crowdfunding.sol\":797:809  projectCount */\n      0x01\n      0x00\n        /* \"contracts/Crowdfunding.sol\":797:811  projectCount++ */\n      dup2\n      sload\n      dup1\n      swap3\n      swap2\n      swap1\n      tag_57\n      swap1\n      tag_58\n      jump\t// in\n    tag_57:\n      swap2\n      swap1\n      pop\n      sstore\n      pop\n        /* \"contracts/Crowdfunding.sol\":847:1076  Project(... */\n      mload(0x40)\n      dup1\n      0xe0\n      add\n      0x40\n      mstore\n      dup1\n        /* \"contracts/Crowdfunding.sol\":869:881  projectCount */\n      sload(0x01)\n        /* \"contracts/Crowdfunding.sol\":847:1076  Project(... */\n      dup2\n      mstore\n      0x20\n      add\n        /* \"contracts/Crowdfunding.sol\":896:901  _name */\n      dup6\n        /* \"contracts/Crowdfunding.sol\":847:1076  Project(... */\n      dup2\n      mstore\n      0x20\n      add\n        /* \"contracts/Crowdfunding.sol\":916:928  _description */\n      dup5\n        /* \"contracts/Crowdfunding.sol\":847:1076  Project(... */\n      dup2\n      mstore\n      0x20\n      add\n        /* \"contracts/Crowdfunding.sol\":943:956  _targetAmount */\n      dup4\n        /* \"contracts/Crowdfunding.sol\":847:1076  Project(... */\n      dup2\n      mstore\n      0x20\n      add\n        /* \"contracts/Crowdfunding.sol\":971:972  0 */\n      0x00\n        /* \"contracts/Crowdfunding.sol\":847:1076  Project(... */\n      dup2\n      mstore\n      0x20\n      add\n        /* \"contracts/Crowdfunding.sol\":1024:1030  1 days */\n      0x015180\n        /* \"contracts/Crowdfunding.sol\":1006:1021  _durationInDays */\n      dup4\n        /* \"contracts/Crowdfunding.sol\":1006:1030  _durationInDays * 1 days */\n      tag_59\n      swap2\n      swap1\n      tag_60\n      jump\t// in\n    tag_59:\n        /* \"contracts/Crowdfunding.sol\":987:1002  block.timestamp */\n      timestamp\n        /* \"contracts/Crowdfunding.sol\":987:1031  block.timestamp + (_durationInDays * 1 days) */\n      tag_61\n      swap2\n      swap1\n      tag_62\n      jump\t// in\n    tag_61:\n        /* \"contracts/Crowdfunding.sol\":847:1076  Project(... */\n      dup2\n      mstore\n      0x20\n      add\n        /* \"contracts/Crowdfunding.sol\":1054:1064  msg.sender */\n      caller\n        /* \"contracts/Crowdfunding.sol\":847:1076  Project(... */\n      0xffffffffffffffffffffffffffffffffffffffff\n      and\n      dup2\n      mstore\n      pop\n        /* \"contracts/Crowdfunding.sol\":822:830  projects */\n      0x00\n        /* \"contracts/Crowdfunding.sol\":822:844  projects[projectCount] */\n      dup1\n        /* \"contracts/Crowdfunding.sol\":831:843  projectCount */\n      sload(0x01)\n        /* \"contracts/Crowdfunding.sol\":822:844  projects[projectCount] */\n      dup2\n      mstore\n      0x20\n      add\n      swap1\n      dup2\n      mstore\n      0x20\n      add\n      0x00\n      keccak256\n        /* \"contracts/Crowdfunding.sol\":822:1076  projects[projectCount] = Project(... */\n      0x00\n      dup3\n      add\n      mload\n      dup2\n      0x00\n      add\n      sstore\n      0x20\n      dup3\n      add\n      mload\n      dup2\n      0x01\n      add\n      swap1\n      dup2\n      tag_63\n      swap2\n      swap1\n      tag_64\n      jump\t// in\n    tag_63:\n      pop\n      0x40\n      dup3\n      add\n      mload\n      dup2\n      0x02\n      add\n      swap1\n      dup2\n      tag_65\n      swap2\n      swap1\n      tag_64\n      jump\t// in\n    tag_65:\n      pop\n      0x60\n      dup3\n      add\n      mload\n      dup2\n      0x03\n      add\n      sstore\n      0x80\n      dup3\n      add\n      mload\n      dup2\n      0x04\n      add\n      sstore\n      0xa0\n      dup3\n      add\n      mload\n      dup2\n      0x05\n      add\n      sstore\n      0xc0\n      dup3\n      add\n      mload\n      dup2\n      0x06\n      add\n      exp(0x0100, 0x00)\n      dup2\n      sload\n      dup2\n      0xffffffffffffffffffffffffffffffffffffffff\n      mul\n      not\n      and\n      swap1\n      dup4\n      0xffffffffffffffffffffffffffffffffffffffff\n      and\n      mul\n      or\n      swap1\n      sstore\n      pop\n      swap1\n      pop\n      pop\n        /* \"contracts/Crowdfunding.sol\":1092:1214  ProjectCreated(projectCount, _name, _description, _targetAmount, block.timestamp + (_durationInDays * 1 days), msg.sender) */\n      0xdbe1c32e03d5a1f775a4db60a0531d3d8610aaf0621374d9a265ad9f1f2b54f3\n        /* \"contracts/Crowdfunding.sol\":1107:1119  projectCount */\n      sload(0x01)\n        /* \"contracts/Crowdfunding.sol\":1121:1126  _name */\n      dup6\n        /* \"contracts/Crowdfunding.sol\":1128:1140  _description */\n      dup6\n        /* \"contracts/Crowdfunding.sol\":1142:1155  _targetAmount */\n      dup6\n        /* \"contracts/Crowdfunding.sol\":1194:1200  1 days */\n      0x015180\n        /* \"contracts/Crowdfunding.sol\":1176:1191  _durationInDays */\n      dup7\n        /* \"contracts/Crowdfunding.sol\":1176:1200  _durationInDays * 1 days */\n      tag_66\n      swap2\n      swap1\n      tag_60\n      jump\t// in\n    tag_66:\n        /* \"contracts/Crowdfunding.sol\":1157:1172  block.timestamp */\n      timestamp\n        /* \"contracts/Crowdfunding.sol\":1157:1201  block.timestamp + (_durationInDays * 1 days) */\n      tag_67\n      swap2\n      swap1\n      tag_62\n      jump\t// in\n    tag_67:\n        /* \"contracts/Crowdfunding.sol\":1203:1213  msg.sender */\n      caller\n        /* \"contracts/Crowdfunding.sol\":1092:1214  ProjectCreated(projectCount, _name, _description, _targetAmount, block.timestamp + (_durationInDays * 1 days), msg.sender) */\n      mload(0x40)\n      tag_68\n      swap7\n      swap6\n      swap5\n      swap4\n      swap3\n      swap2\n      swap1\n      tag_69\n      jump\t// in\n    tag_68:\n      mload(0x40)\n      dup1\n      swap2\n      sub\n      swap1\n      log1\n        /* \"contracts/Crowdfunding.sol\":665:1222  function createProject(string memory _name, string memory _description, uint _targetAmount, uint _durationInDays) public {... */\n      pop\n      pop\n      pop\n      pop\n      jump\t// out\n        /* \"contracts/Crowdfunding.sol\":1230:1623  function donate(uint _projectId) public payable {... */\n    tag_30:\n        /* \"contracts/Crowdfunding.sol\":1289:1312  Project storage project */\n      0x00\n        /* \"contracts/Crowdfunding.sol\":1315:1323  projects */\n      dup1\n        /* \"contracts/Crowdfunding.sol\":1315:1335  projects[_projectId] */\n      0x00\n        /* \"contracts/Crowdfunding.sol\":1324:1334  _projectId */\n      dup4\n        /* \"contracts/Crowdfunding.sol\":1315:1335  projects[_projectId] */\n      dup2\n      mstore\n      0x20\n      add\n      swap1\n      dup2\n      mstore\n      0x20\n      add\n      0x00\n      keccak256\n        /* \"contracts/Crowdfunding.sol\":1289:1335  Project storage project = projects[_projectId] */\n      swap1\n      pop\n        /* \"contracts/Crowdfunding.sol\":1373:1380  project */\n      dup1\n        /* \"contracts/Crowdfunding.sol\":1373:1389  project.deadline */\n      0x05\n      add\n      sload\n        /* \"contracts/Crowdfunding.sol\":1354:1369  block.timestamp */\n      timestamp\n        /* \"contracts/Crowdfunding.sol\":1354:1389  block.timestamp <= project.deadline */\n      gt\n      iszero\n        /* \"contracts/Crowdfunding.sol\":1346:1414  require(block.timestamp <= project.deadline, \"Deadline has passed.\") */\n      tag_71\n      jumpi\n      mload(0x40)\n      0x08c379a000000000000000000000000000000000000000000000000000000000\n      dup2\n      mstore\n      0x04\n      add\n      tag_72\n      swap1\n      tag_73\n      jump\t// in\n    tag_72:\n      mload(0x40)\n      dup1\n      swap2\n      sub\n      swap1\n      revert\n    tag_71:\n        /* \"contracts/Crowdfunding.sol\":1445:1446  0 */\n      0x00\n        /* \"contracts/Crowdfunding.sol\":1433:1442  msg.value */\n      callvalue\n        /* \"contracts/Crowdfunding.sol\":1433:1446  msg.value > 0 */\n      gt\n        /* \"contracts/Crowdfunding.sol\":1425:1493  require(msg.value > 0, \"Donation amount must be greater than zero.\") */\n      tag_74\n      jumpi\n      mload(0x40)\n      0x08c379a000000000000000000000000000000000000000000000000000000000\n      dup2\n      mstore\n      0x04\n      add\n      tag_75\n      swap1\n      tag_76\n      jump\t// in\n    tag_75:\n      mload(0x40)\n      dup1\n      swap2\n      sub\n      swap1\n      revert\n    tag_74:\n        /* \"contracts/Crowdfunding.sol\":1539:1548  msg.value */\n      callvalue\n        /* \"contracts/Crowdfunding.sol\":1514:1521  project */\n      dup2\n        /* \"contracts/Crowdfunding.sol\":1514:1535  project.currentAmount */\n      0x04\n      add\n      0x00\n        /* \"contracts/Crowdfunding.sol\":1514:1548  project.currentAmount += msg.value */\n      dup3\n      dup3\n      sload\n      tag_77\n      swap2\n      swap1\n      tag_62\n      jump\t// in\n    tag_77:\n      swap3\n      pop\n      pop\n      dup2\n      swap1\n      sstore\n      pop\n        /* \"contracts/Crowdfunding.sol\":1564:1615  DonationReceived(_projectId, msg.value, msg.sender) */\n      0xd1509d0d614d0c3e599471b10aa247cc85ce44879836c03502258b44cc12af02\n        /* \"contracts/Crowdfunding.sol\":1581:1591  _projectId */\n      dup3\n        /* \"contracts/Crowdfunding.sol\":1593:1602  msg.value */\n      callvalue\n        /* \"contracts/Crowdfunding.sol\":1604:1614  msg.sender */\n      caller\n        /* \"contracts/Crowdfunding.sol\":1564:1615  DonationReceived(_projectId, msg.value, msg.sender) */\n      mload(0x40)\n      tag_78\n      swap4\n      swap3\n      swap2\n      swap1\n      tag_79\n      jump\t// in\n    tag_78:\n      mload(0x40)\n      dup1\n      swap2\n      sub\n      swap1\n      log1\n        /* \"contracts/Crowdfunding.sol\":1278:1623  {... */\n      pop\n        /* \"contracts/Crowdfunding.sol\":1230:1623  function donate(uint _projectId) public payable {... */\n      pop\n      jump\t// out\n        /* \"#utility.yul\":7:82   */\n    tag_80:\n        /* \"#utility.yul\":40:46   */\n      0x00\n        /* \"#utility.yul\":73:75   */\n      0x40\n        /* \"#utility.yul\":67:76   */\n      mload\n        /* \"#utility.yul\":57:76   */\n      swap1\n      pop\n        /* \"#utility.yul\":7:82   */\n      swap1\n      jump\t// out\n        /* \"#utility.yul\":88:205   */\n    tag_81:\n        /* \"#utility.yul\":197:198   */\n      0x00\n        /* \"#utility.yul\":194:195   */\n      dup1\n        /* \"#utility.yul\":187:199   */\n      revert\n        /* \"#utility.yul\":211:328   */\n    tag_82:\n        /* \"#utility.yul\":320:321   */\n      0x00\n        /* \"#utility.yul\":317:318   */\n      dup1\n        /* \"#utility.yul\":310:322   */\n      revert\n        /* \"#utility.yul\":334:411   */\n    tag_83:\n        /* \"#utility.yul\":371:378   */\n      0x00\n        /* \"#utility.yul\":400:405   */\n      dup2\n        /* \"#utility.yul\":389:405   */\n      swap1\n      pop\n        /* \"#utility.yul\":334:411   */\n      swap2\n      swap1\n      pop\n      jump\t// out\n        /* \"#utility.yul\":417:539   */\n    tag_84:\n        /* \"#utility.yul\":490:514   */\n      tag_139\n        /* \"#utility.yul\":508:513   */\n      dup2\n        /* \"#utility.yul\":490:514   */\n      tag_83\n      jump\t// in\n    tag_139:\n        /* \"#utility.yul\":483:488   */\n      dup2\n        /* \"#utility.yul\":480:515   */\n      eq\n        /* \"#utility.yul\":470:533   */\n      tag_140\n      jumpi\n        /* \"#utility.yul\":529:530   */\n      0x00\n        /* \"#utility.yul\":526:527   */\n      dup1\n        /* \"#utility.yul\":519:531   */\n      revert\n        /* \"#utility.yul\":470:533   */\n    tag_140:\n        /* \"#utility.yul\":417:539   */\n      pop\n      jump\t// out\n        /* \"#utility.yul\":545:684   */\n    tag_85:\n        /* \"#utility.yul\":591:596   */\n      0x00\n        /* \"#utility.yul\":629:635   */\n      dup2\n        /* \"#utility.yul\":616:636   */\n      calldataload\n        /* \"#utility.yul\":607:636   */\n      swap1\n      pop\n        /* \"#utility.yul\":645:678   */\n      tag_142\n        /* \"#utility.yul\":672:677   */\n      dup2\n        /* \"#utility.yul\":645:678   */\n      tag_84\n      jump\t// in\n    tag_142:\n        /* \"#utility.yul\":545:684   */\n      swap3\n      swap2\n      pop\n      pop\n      jump\t// out\n        /* \"#utility.yul\":690:1019   */\n    tag_10:\n        /* \"#utility.yul\":749:755   */\n      0x00\n        /* \"#utility.yul\":798:800   */\n      0x20\n        /* \"#utility.yul\":786:795   */\n      dup3\n        /* \"#utility.yul\":777:784   */\n      dup5\n        /* \"#utility.yul\":773:796   */\n      sub\n        /* \"#utility.yul\":769:801   */\n      slt\n        /* \"#utility.yul\":766:885   */\n      iszero\n      tag_144\n      jumpi\n        /* \"#utility.yul\":804:883   */\n      tag_145\n      tag_81\n      jump\t// in\n    tag_145:\n        /* \"#utility.yul\":766:885   */\n    tag_144:\n        /* \"#utility.yul\":924:925   */\n      0x00\n        /* \"#utility.yul\":949:1002   */\n      tag_146\n        /* \"#utility.yul\":994:1001   */\n      dup5\n        /* \"#utility.yul\":985:991   */\n      dup3\n        /* \"#utility.yul\":974:983   */\n      dup6\n        /* \"#utility.yul\":970:992   */\n      add\n        /* \"#utility.yul\":949:1002   */\n      tag_85\n      jump\t// in\n    tag_146:\n        /* \"#utility.yul\":939:1002   */\n      swap2\n      pop\n        /* \"#utility.yul\":895:1012   */\n      pop\n        /* \"#utility.yul\":690:1019   */\n      swap3\n      swap2\n      pop\n      pop\n      jump\t// out\n        /* \"#utility.yul\":1025:1143   */\n    tag_86:\n        /* \"#utility.yul\":1112:1136   */\n      tag_148\n        /* \"#utility.yul\":1130:1135   */\n      dup2\n        /* \"#utility.yul\":1112:1136   */\n      tag_83\n      jump\t// in\n    tag_148:\n        /* \"#utility.yul\":1107:1110   */\n      dup3\n        /* \"#utility.yul\":1100:1137   */\n      mstore\n        /* \"#utility.yul\":1025:1143   */\n      pop\n      pop\n      jump\t// out\n        /* \"#utility.yul\":1149:1248   */\n    tag_87:\n        /* \"#utility.yul\":1201:1207   */\n      0x00\n        /* \"#utility.yul\":1235:1240   */\n      dup2\n        /* \"#utility.yul\":1229:1241   */\n      mload\n        /* \"#utility.yul\":1219:1241   */\n      swap1\n      pop\n        /* \"#utility.yul\":1149:1248   */\n      swap2\n      swap1\n      pop\n      jump\t// out\n        /* \"#utility.yul\":1254:1423   */\n    tag_88:\n        /* \"#utility.yul\":1338:1349   */\n      0x00\n        /* \"#utility.yul\":1372:1378   */\n      dup3\n        /* \"#utility.yul\":1367:1370   */\n      dup3\n        /* \"#utility.yul\":1360:1379   */\n      mstore\n        /* \"#utility.yul\":1412:1416   */\n      0x20\n        /* \"#utility.yul\":1407:1410   */\n      dup3\n        /* \"#utility.yul\":1403:1417   */\n      add\n        /* \"#utility.yul\":1388:1417   */\n      swap1\n      pop\n        /* \"#utility.yul\":1254:1423   */\n      swap3\n      swap2\n      pop\n      pop\n      jump\t// out\n        /* \"#utility.yul\":1429:1568   */\n    tag_89:\n        /* \"#utility.yul\":1518:1524   */\n      dup3\n        /* \"#utility.yul\":1513:1516   */\n      dup2\n        /* \"#utility.yul\":1508:1511   */\n      dup4\n        /* \"#utility.yul\":1502:1525   */\n      mcopy\n        /* \"#utility.yul\":1559:1560   */\n      0x00\n        /* \"#utility.yul\":1550:1556   */\n      dup4\n        /* \"#utility.yul\":1545:1548   */\n      dup4\n        /* \"#utility.yul\":1541:1557   */\n      add\n        /* \"#utility.yul\":1534:1561   */\n      mstore\n        /* \"#utility.yul\":1429:1568   */\n      pop\n      pop\n      pop\n      jump\t// out\n        /* \"#utility.yul\":1574:1676   */\n    tag_90:\n        /* \"#utility.yul\":1615:1621   */\n      0x00\n        /* \"#utility.yul\":1666:1668   */\n      0x1f\n        /* \"#utility.yul\":1662:1669   */\n      not\n        /* \"#utility.yul\":1657:1659   */\n      0x1f\n        /* \"#utility.yul\":1650:1655   */\n      dup4\n        /* \"#utility.yul\":1646:1660   */\n      add\n        /* \"#utility.yul\":1642:1670   */\n      and\n        /* \"#utility.yul\":1632:1670   */\n      swap1\n      pop\n        /* \"#utility.yul\":1574:1676   */\n      swap2\n      swap1\n      pop\n      jump\t// out\n        /* \"#utility.yul\":1682:2059   */\n    tag_91:\n        /* \"#utility.yul\":1770:1773   */\n      0x00\n        /* \"#utility.yul\":1798:1837   */\n      tag_154\n        /* \"#utility.yul\":1831:1836   */\n      dup3\n        /* \"#utility.yul\":1798:1837   */\n      tag_87\n      jump\t// in\n    tag_154:\n        /* \"#utility.yul\":1853:1924   */\n      tag_155\n        /* \"#utility.yul\":1917:1923   */\n      dup2\n        /* \"#utility.yul\":1912:1915   */\n      dup6\n        /* \"#utility.yul\":1853:1924   */\n      tag_88\n      jump\t// in\n    tag_155:\n        /* \"#utility.yul\":1846:1924   */\n      swap4\n      pop\n        /* \"#utility.yul\":1933:1998   */\n      tag_156\n        /* \"#utility.yul\":1991:1997   */\n      dup2\n        /* \"#utility.yul\":1986:1989   */\n      dup6\n        /* \"#utility.yul\":1979:1983   */\n      0x20\n        /* \"#utility.yul\":1972:1977   */\n      dup7\n        /* \"#utility.yul\":1968:1984   */\n      add\n        /* \"#utility.yul\":1933:1998   */\n      tag_89\n      jump\t// in\n    tag_156:\n        /* \"#utility.yul\":2023:2052   */\n      tag_157\n        /* \"#utility.yul\":2045:2051   */\n      dup2\n        /* \"#utility.yul\":2023:2052   */\n      tag_90\n      jump\t// in\n    tag_157:\n        /* \"#utility.yul\":2018:2021   */\n      dup5\n        /* \"#utility.yul\":2014:2053   */\n      add\n        /* \"#utility.yul\":2007:2053   */\n      swap2\n      pop\n        /* \"#utility.yul\":1774:2059   */\n      pop\n        /* \"#utility.yul\":1682:2059   */\n      swap3\n      swap2\n      pop\n      pop\n      jump\t// out\n        /* \"#utility.yul\":2065:2191   */\n    tag_92:\n        /* \"#utility.yul\":2102:2109   */\n      0x00\n        /* \"#utility.yul\":2142:2184   */\n      0xffffffffffffffffffffffffffffffffffffffff\n        /* \"#utility.yul\":2135:2140   */\n      dup3\n        /* \"#utility.yul\":2131:2185   */\n      and\n        /* \"#utility.yul\":2120:2185   */\n      swap1\n      pop\n        /* \"#utility.yul\":2065:2191   */\n      swap2\n      swap1\n      pop\n      jump\t// out\n        /* \"#utility.yul\":2197:2301   */\n    tag_93:\n        /* \"#utility.yul\":2242:2249   */\n      0x00\n        /* \"#utility.yul\":2271:2295   */\n      tag_160\n        /* \"#utility.yul\":2289:2294   */\n      dup3\n        /* \"#utility.yul\":2271:2295   */\n      tag_92\n      jump\t// in\n    tag_160:\n        /* \"#utility.yul\":2260:2295   */\n      swap1\n      pop\n        /* \"#utility.yul\":2197:2301   */\n      swap2\n      swap1\n      pop\n      jump\t// out\n        /* \"#utility.yul\":2307:2449   */\n    tag_94:\n        /* \"#utility.yul\":2410:2442   */\n      tag_162\n        /* \"#utility.yul\":2436:2441   */\n      dup2\n        /* \"#utility.yul\":2410:2442   */\n      tag_93\n      jump\t// in\n    tag_162:\n        /* \"#utility.yul\":2405:2408   */\n      dup3\n        /* \"#utility.yul\":2398:2443   */\n      mstore\n        /* \"#utility.yul\":2307:2449   */\n      pop\n      pop\n      jump\t// out\n        /* \"#utility.yul\":2455:3555   */\n    tag_13:\n        /* \"#utility.yul\":2772:2776   */\n      0x00\n        /* \"#utility.yul\":2810:2813   */\n      0xe0\n        /* \"#utility.yul\":2799:2808   */\n      dup3\n        /* \"#utility.yul\":2795:2814   */\n      add\n        /* \"#utility.yul\":2787:2814   */\n      swap1\n      pop\n        /* \"#utility.yul\":2824:2895   */\n      tag_164\n        /* \"#utility.yul\":2892:2893   */\n      0x00\n        /* \"#utility.yul\":2881:2890   */\n      dup4\n        /* \"#utility.yul\":2877:2894   */\n      add\n        /* \"#utility.yul\":2868:2874   */\n      dup11\n        /* \"#utility.yul\":2824:2895   */\n      tag_86\n      jump\t// in\n    tag_164:\n        /* \"#utility.yul\":2942:2951   */\n      dup2\n        /* \"#utility.yul\":2936:2940   */\n      dup2\n        /* \"#utility.yul\":2932:2952   */\n      sub\n        /* \"#utility.yul\":2927:2929   */\n      0x20\n        /* \"#utility.yul\":2916:2925   */\n      dup4\n        /* \"#utility.yul\":2912:2930   */\n      add\n        /* \"#utility.yul\":2905:2953   */\n      mstore\n        /* \"#utility.yul\":2970:3048   */\n      tag_165\n        /* \"#utility.yul\":3043:3047   */\n      dup2\n        /* \"#utility.yul\":3034:3040   */\n      dup10\n        /* \"#utility.yul\":2970:3048   */\n      tag_91\n      jump\t// in\n    tag_165:\n        /* \"#utility.yul\":2962:3048   */\n      swap1\n      pop\n        /* \"#utility.yul\":3095:3104   */\n      dup2\n        /* \"#utility.yul\":3089:3093   */\n      dup2\n        /* \"#utility.yul\":3085:3105   */\n      sub\n        /* \"#utility.yul\":3080:3082   */\n      0x40\n        /* \"#utility.yul\":3069:3078   */\n      dup4\n        /* \"#utility.yul\":3065:3083   */\n      add\n        /* \"#utility.yul\":3058:3106   */\n      mstore\n        /* \"#utility.yul\":3123:3201   */\n      tag_166\n        /* \"#utility.yul\":3196:3200   */\n      dup2\n        /* \"#utility.yul\":3187:3193   */\n      dup9\n        /* \"#utility.yul\":3123:3201   */\n      tag_91\n      jump\t// in\n    tag_166:\n        /* \"#utility.yul\":3115:3201   */\n      swap1\n      pop\n        /* \"#utility.yul\":3211:3283   */\n      tag_167\n        /* \"#utility.yul\":3279:3281   */\n      0x60\n        /* \"#utility.yul\":3268:3277   */\n      dup4\n        /* \"#utility.yul\":3264:3282   */\n      add\n        /* \"#utility.yul\":3255:3261   */\n      dup8\n        /* \"#utility.yul\":3211:3283   */\n      tag_86\n      jump\t// in\n    tag_167:\n        /* \"#utility.yul\":3293:3366   */\n      tag_168\n        /* \"#utility.yul\":3361:3364   */\n      0x80\n        /* \"#utility.yul\":3350:3359   */\n      dup4\n        /* \"#utility.yul\":3346:3365   */\n      add\n        /* \"#utility.yul\":3337:3343   */\n      dup7\n        /* \"#utility.yul\":3293:3366   */\n      tag_86\n      jump\t// in\n    tag_168:\n        /* \"#utility.yul\":3376:3449   */\n      tag_169\n        /* \"#utility.yul\":3444:3447   */\n      0xa0\n        /* \"#utility.yul\":3433:3442   */\n      dup4\n        /* \"#utility.yul\":3429:3448   */\n      add\n        /* \"#utility.yul\":3420:3426   */\n      dup6\n        /* \"#utility.yul\":3376:3449   */\n      tag_86\n      jump\t// in\n    tag_169:\n        /* \"#utility.yul\":3459:3548   */\n      tag_170\n        /* \"#utility.yul\":3543:3546   */\n      0xc0\n        /* \"#utility.yul\":3532:3541   */\n      dup4\n        /* \"#utility.yul\":3528:3547   */\n      add\n        /* \"#utility.yul\":3519:3525   */\n      dup5\n        /* \"#utility.yul\":3459:3548   */\n      tag_94\n      jump\t// in\n    tag_170:\n        /* \"#utility.yul\":2455:3555   */\n      swap9\n      swap8\n      pop\n      pop\n      pop\n      pop\n      pop\n      pop\n      pop\n      pop\n      jump\t// out\n        /* \"#utility.yul\":3561:3783   */\n    tag_22:\n        /* \"#utility.yul\":3654:3658   */\n      0x00\n        /* \"#utility.yul\":3692:3694   */\n      0x20\n        /* \"#utility.yul\":3681:3690   */\n      dup3\n        /* \"#utility.yul\":3677:3695   */\n      add\n        /* \"#utility.yul\":3669:3695   */\n      swap1\n      pop\n        /* \"#utility.yul\":3705:3776   */\n      tag_172\n        /* \"#utility.yul\":3773:3774   */\n      0x00\n        /* \"#utility.yul\":3762:3771   */\n      dup4\n        /* \"#utility.yul\":3758:3775   */\n      add\n        /* \"#utility.yul\":3749:3755   */\n      dup5\n        /* \"#utility.yul\":3705:3776   */\n      tag_86\n      jump\t// in\n    tag_172:\n        /* \"#utility.yul\":3561:3783   */\n      swap3\n      swap2\n      pop\n      pop\n      jump\t// out\n        /* \"#utility.yul\":3789:3906   */\n    tag_95:\n        /* \"#utility.yul\":3898:3899   */\n      0x00\n        /* \"#utility.yul\":3895:3896   */\n      dup1\n        /* \"#utility.yul\":3888:3900   */\n      revert\n        /* \"#utility.yul\":3912:4029   */\n    tag_96:\n        /* \"#utility.yul\":4021:4022   */\n      0x00\n        /* \"#utility.yul\":4018:4019   */\n      dup1\n        /* \"#utility.yul\":4011:4023   */\n      revert\n        /* \"#utility.yul\":4035:4215   */\n    tag_97:\n        /* \"#utility.yul\":4083:4160   */\n      0x4e487b7100000000000000000000000000000000000000000000000000000000\n        /* \"#utility.yul\":4080:4081   */\n      0x00\n        /* \"#utility.yul\":4073:4161   */\n      mstore\n        /* \"#utility.yul\":4180:4184   */\n      0x41\n        /* \"#utility.yul\":4177:4178   */\n      0x04\n        /* \"#utility.yul\":4170:4185   */\n      mstore\n        /* \"#utility.yul\":4204:4208   */\n      0x24\n        /* \"#utility.yul\":4201:4202   */\n      0x00\n        /* \"#utility.yul\":4194:4209   */\n      revert\n        /* \"#utility.yul\":4221:4502   */\n    tag_98:\n        /* \"#utility.yul\":4304:4331   */\n      tag_177\n        /* \"#utility.yul\":4326:4330   */\n      dup3\n        /* \"#utility.yul\":4304:4331   */\n      tag_90\n      jump\t// in\n    tag_177:\n        /* \"#utility.yul\":4296:4302   */\n      dup2\n        /* \"#utility.yul\":4292:4332   */\n      add\n        /* \"#utility.yul\":4434:4440   */\n      dup2\n        /* \"#utility.yul\":4422:4432   */\n      dup2\n        /* \"#utility.yul\":4419:4441   */\n      lt\n        /* \"#utility.yul\":4398:4416   */\n      0xffffffffffffffff\n        /* \"#utility.yul\":4386:4396   */\n      dup3\n        /* \"#utility.yul\":4383:4417   */\n      gt\n        /* \"#utility.yul\":4380:4442   */\n      or\n        /* \"#utility.yul\":4377:4465   */\n      iszero\n      tag_178\n      jumpi\n        /* \"#utility.yul\":4445:4463   */\n      tag_179\n      tag_97\n      jump\t// in\n    tag_179:\n        /* \"#utility.yul\":4377:4465   */\n    tag_178:\n        /* \"#utility.yul\":4485:4495   */\n      dup1\n        /* \"#utility.yul\":4481:4483   */\n      0x40\n        /* \"#utility.yul\":4474:4496   */\n      mstore\n        /* \"#utility.yul\":4264:4502   */\n      pop\n        /* \"#utility.yul\":4221:4502   */\n      pop\n      pop\n      jump\t// out\n        /* \"#utility.yul\":4508:4637   */\n    tag_99:\n        /* \"#utility.yul\":4542:4548   */\n      0x00\n        /* \"#utility.yul\":4569:4589   */\n      tag_181\n      tag_80\n      jump\t// in\n    tag_181:\n        /* \"#utility.yul\":4559:4589   */\n      swap1\n      pop\n        /* \"#utility.yul\":4598:4631   */\n      tag_182\n        /* \"#utility.yul\":4626:4630   */\n      dup3\n        /* \"#utility.yul\":4618:4624   */\n      dup3\n        /* \"#utility.yul\":4598:4631   */\n      tag_98\n      jump\t// in\n    tag_182:\n        /* \"#utility.yul\":4508:4637   */\n      swap2\n      swap1\n      pop\n      jump\t// out\n        /* \"#utility.yul\":4643:4951   */\n    tag_100:\n        /* \"#utility.yul\":4705:4709   */\n      0x00\n        /* \"#utility.yul\":4795:4813   */\n      0xffffffffffffffff\n        /* \"#utility.yul\":4787:4793   */\n      dup3\n        /* \"#utility.yul\":4784:4814   */\n      gt\n        /* \"#utility.yul\":4781:4837   */\n      iszero\n      tag_184\n      jumpi\n        /* \"#utility.yul\":4817:4835   */\n      tag_185\n      tag_97\n      jump\t// in\n    tag_185:\n        /* \"#utility.yul\":4781:4837   */\n    tag_184:\n        /* \"#utility.yul\":4855:4884   */\n      tag_186\n        /* \"#utility.yul\":4877:4883   */\n      dup3\n        /* \"#utility.yul\":4855:4884   */\n      tag_90\n      jump\t// in\n    tag_186:\n        /* \"#utility.yul\":4847:4884   */\n      swap1\n      pop\n        /* \"#utility.yul\":4939:4943   */\n      0x20\n        /* \"#utility.yul\":4933:4937   */\n      dup2\n        /* \"#utility.yul\":4929:4944   */\n      add\n        /* \"#utility.yul\":4921:4944   */\n      swap1\n      pop\n        /* \"#utility.yul\":4643:4951   */\n      swap2\n      swap1\n      pop\n      jump\t// out\n        /* \"#utility.yul\":4957:5105   */\n    tag_101:\n        /* \"#utility.yul\":5055:5061   */\n      dup3\n        /* \"#utility.yul\":5050:5053   */\n      dup2\n        /* \"#utility.yul\":5045:5048   */\n      dup4\n        /* \"#utility.yul\":5032:5062   */\n      calldatacopy\n        /* \"#utility.yul\":5096:5097   */\n      0x00\n        /* \"#utility.yul\":5087:5093   */\n      dup4\n        /* \"#utility.yul\":5082:5085   */\n      dup4\n        /* \"#utility.yul\":5078:5094   */\n      add\n        /* \"#utility.yul\":5071:5098   */\n      mstore\n        /* \"#utility.yul\":4957:5105   */\n      pop\n      pop\n      pop\n      jump\t// out\n        /* \"#utility.yul\":5111:5536   */\n    tag_102:\n        /* \"#utility.yul\":5189:5194   */\n      0x00\n        /* \"#utility.yul\":5214:5280   */\n      tag_189\n        /* \"#utility.yul\":5230:5279   */\n      tag_190\n        /* \"#utility.yul\":5272:5278   */\n      dup5\n        /* \"#utility.yul\":5230:5279   */\n      tag_100\n      jump\t// in\n    tag_190:\n        /* \"#utility.yul\":5214:5280   */\n      tag_99\n      jump\t// in\n    tag_189:\n        /* \"#utility.yul\":5205:5280   */\n      swap1\n      pop\n        /* \"#utility.yul\":5303:5309   */\n      dup3\n        /* \"#utility.yul\":5296:5301   */\n      dup2\n        /* \"#utility.yul\":5289:5310   */\n      mstore\n        /* \"#utility.yul\":5341:5345   */\n      0x20\n        /* \"#utility.yul\":5334:5339   */\n      dup2\n        /* \"#utility.yul\":5330:5346   */\n      add\n        /* \"#utility.yul\":5379:5382   */\n      dup5\n        /* \"#utility.yul\":5370:5376   */\n      dup5\n        /* \"#utility.yul\":5365:5368   */\n      dup5\n        /* \"#utility.yul\":5361:5377   */\n      add\n        /* \"#utility.yul\":5358:5383   */\n      gt\n        /* \"#utility.yul\":5355:5467   */\n      iszero\n      tag_191\n      jumpi\n        /* \"#utility.yul\":5386:5465   */\n      tag_192\n      tag_96\n      jump\t// in\n    tag_192:\n        /* \"#utility.yul\":5355:5467   */\n    tag_191:\n        /* \"#utility.yul\":5476:5530   */\n      tag_193\n        /* \"#utility.yul\":5523:5529   */\n      dup5\n        /* \"#utility.yul\":5518:5521   */\n      dup3\n        /* \"#utility.yul\":5513:5516   */\n      dup6\n        /* \"#utility.yul\":5476:5530   */\n      tag_101\n      jump\t// in\n    tag_193:\n        /* \"#utility.yul\":5195:5536   */\n      pop\n        /* \"#utility.yul\":5111:5536   */\n      swap4\n      swap3\n      pop\n      pop\n      pop\n      jump\t// out\n        /* \"#utility.yul\":5556:5896   */\n    tag_103:\n        /* \"#utility.yul\":5612:5617   */\n      0x00\n        /* \"#utility.yul\":5661:5664   */\n      dup3\n        /* \"#utility.yul\":5654:5658   */\n      0x1f\n        /* \"#utility.yul\":5646:5652   */\n      dup4\n        /* \"#utility.yul\":5642:5659   */\n      add\n        /* \"#utility.yul\":5638:5665   */\n      slt\n        /* \"#utility.yul\":5628:5750   */\n      tag_195\n      jumpi\n        /* \"#utility.yul\":5669:5748   */\n      tag_196\n      tag_95\n      jump\t// in\n    tag_196:\n        /* \"#utility.yul\":5628:5750   */\n    tag_195:\n        /* \"#utility.yul\":5786:5792   */\n      dup2\n        /* \"#utility.yul\":5773:5793   */\n      calldataload\n        /* \"#utility.yul\":5811:5890   */\n      tag_197\n        /* \"#utility.yul\":5886:5889   */\n      dup5\n        /* \"#utility.yul\":5878:5884   */\n      dup3\n        /* \"#utility.yul\":5871:5875   */\n      0x20\n        /* \"#utility.yul\":5863:5869   */\n      dup7\n        /* \"#utility.yul\":5859:5876   */\n      add\n        /* \"#utility.yul\":5811:5890   */\n      tag_102\n      jump\t// in\n    tag_197:\n        /* \"#utility.yul\":5802:5890   */\n      swap2\n      pop\n        /* \"#utility.yul\":5618:5896   */\n      pop\n        /* \"#utility.yul\":5556:5896   */\n      swap3\n      swap2\n      pop\n      pop\n      jump\t// out\n        /* \"#utility.yul\":5902:7027   */\n    tag_26:\n        /* \"#utility.yul\":6008:6014   */\n      0x00\n        /* \"#utility.yul\":6016:6022   */\n      dup1\n        /* \"#utility.yul\":6024:6030   */\n      0x00\n        /* \"#utility.yul\":6032:6038   */\n      dup1\n        /* \"#utility.yul\":6081:6084   */\n      0x80\n        /* \"#utility.yul\":6069:6078   */\n      dup6\n        /* \"#utility.yul\":6060:6067   */\n      dup8\n        /* \"#utility.yul\":6056:6079   */\n      sub\n        /* \"#utility.yul\":6052:6085   */\n      slt\n        /* \"#utility.yul\":6049:6169   */\n      iszero\n      tag_199\n      jumpi\n        /* \"#utility.yul\":6088:6167   */\n      tag_200\n      tag_81\n      jump\t// in\n    tag_200:\n        /* \"#utility.yul\":6049:6169   */\n    tag_199:\n        /* \"#utility.yul\":6236:6237   */\n      0x00\n        /* \"#utility.yul\":6225:6234   */\n      dup6\n        /* \"#utility.yul\":6221:6238   */\n      add\n        /* \"#utility.yul\":6208:6239   */\n      calldataload\n        /* \"#utility.yul\":6266:6284   */\n      0xffffffffffffffff\n        /* \"#utility.yul\":6258:6264   */\n      dup2\n        /* \"#utility.yul\":6255:6285   */\n      gt\n        /* \"#utility.yul\":6252:6369   */\n      iszero\n      tag_201\n      jumpi\n        /* \"#utility.yul\":6288:6367   */\n      tag_202\n      tag_82\n      jump\t// in\n    tag_202:\n        /* \"#utility.yul\":6252:6369   */\n    tag_201:\n        /* \"#utility.yul\":6393:6456   */\n      tag_203\n        /* \"#utility.yul\":6448:6455   */\n      dup8\n        /* \"#utility.yul\":6439:6445   */\n      dup3\n        /* \"#utility.yul\":6428:6437   */\n      dup9\n        /* \"#utility.yul\":6424:6446   */\n      add\n        /* \"#utility.yul\":6393:6456   */\n      tag_103\n      jump\t// in\n    tag_203:\n        /* \"#utility.yul\":6383:6456   */\n      swap5\n      pop\n        /* \"#utility.yul\":6179:6466   */\n      pop\n        /* \"#utility.yul\":6533:6535   */\n      0x20\n        /* \"#utility.yul\":6522:6531   */\n      dup6\n        /* \"#utility.yul\":6518:6536   */\n      add\n        /* \"#utility.yul\":6505:6537   */\n      calldataload\n        /* \"#utility.yul\":6564:6582   */\n      0xffffffffffffffff\n        /* \"#utility.yul\":6556:6562   */\n      dup2\n        /* \"#utility.yul\":6553:6583   */\n      gt\n        /* \"#utility.yul\":6550:6667   */\n      iszero\n      tag_204\n      jumpi\n        /* \"#utility.yul\":6586:6665   */\n      tag_205\n      tag_82\n      jump\t// in\n    tag_205:\n        /* \"#utility.yul\":6550:6667   */\n    tag_204:\n        /* \"#utility.yul\":6691:6754   */\n      tag_206\n        /* \"#utility.yul\":6746:6753   */\n      dup8\n        /* \"#utility.yul\":6737:6743   */\n      dup3\n        /* \"#utility.yul\":6726:6735   */\n      dup9\n        /* \"#utility.yul\":6722:6744   */\n      add\n        /* \"#utility.yul\":6691:6754   */\n      tag_103\n      jump\t// in\n    tag_206:\n        /* \"#utility.yul\":6681:6754   */\n      swap4\n      pop\n        /* \"#utility.yul\":6476:6764   */\n      pop\n        /* \"#utility.yul\":6803:6805   */\n      0x40\n        /* \"#utility.yul\":6829:6882   */\n      tag_207\n        /* \"#utility.yul\":6874:6881   */\n      dup8\n        /* \"#utility.yul\":6865:6871   */\n      dup3\n        /* \"#utility.yul\":6854:6863   */\n      dup9\n        /* \"#utility.yul\":6850:6872   */\n      add\n        /* \"#utility.yul\":6829:6882   */\n      tag_85\n      jump\t// in\n    tag_207:\n        /* \"#utility.yul\":6819:6882   */\n      swap3\n      pop\n        /* \"#utility.yul\":6774:6892   */\n      pop\n        /* \"#utility.yul\":6931:6933   */\n      0x60\n        /* \"#utility.yul\":6957:7010   */\n      tag_208\n        /* \"#utility.yul\":7002:7009   */\n      dup8\n        /* \"#utility.yul\":6993:6999   */\n      dup3\n        /* \"#utility.yul\":6982:6991   */\n      dup9\n        /* \"#utility.yul\":6978:7000   */\n      add\n        /* \"#utility.yul\":6957:7010   */\n      tag_85\n      jump\t// in\n    tag_208:\n        /* \"#utility.yul\":6947:7010   */\n      swap2\n      pop\n        /* \"#utility.yul\":6902:7020   */\n      pop\n        /* \"#utility.yul\":5902:7027   */\n      swap3\n      swap6\n      swap2\n      swap5\n      pop\n      swap3\n      pop\n      jump\t// out\n        /* \"#utility.yul\":7033:7213   */\n    tag_104:\n        /* \"#utility.yul\":7081:7158   */\n      0x4e487b7100000000000000000000000000000000000000000000000000000000\n        /* \"#utility.yul\":7078:7079   */\n      0x00\n        /* \"#utility.yul\":7071:7159   */\n      mstore\n        /* \"#utility.yul\":7178:7182   */\n      0x22\n        /* \"#utility.yul\":7175:7176   */\n      0x04\n        /* \"#utility.yul\":7168:7183   */\n      mstore\n        /* \"#utility.yul\":7202:7206   */\n      0x24\n        /* \"#utility.yul\":7199:7200   */\n      0x00\n        /* \"#utility.yul\":7192:7207   */\n      revert\n        /* \"#utility.yul\":7219:7539   */\n    tag_32:\n        /* \"#utility.yul\":7263:7269   */\n      0x00\n        /* \"#utility.yul\":7300:7301   */\n      0x02\n        /* \"#utility.yul\":7294:7298   */\n      dup3\n        /* \"#utility.yul\":7290:7302   */\n      div\n        /* \"#utility.yul\":7280:7302   */\n      swap1\n      pop\n        /* \"#utility.yul\":7347:7348   */\n      0x01\n        /* \"#utility.yul\":7341:7345   */\n      dup3\n        /* \"#utility.yul\":7337:7349   */\n      and\n        /* \"#utility.yul\":7368:7386   */\n      dup1\n        /* \"#utility.yul\":7358:7439   */\n      tag_211\n      jumpi\n        /* \"#utility.yul\":7424:7428   */\n      0x7f\n        /* \"#utility.yul\":7416:7422   */\n      dup3\n        /* \"#utility.yul\":7412:7429   */\n      and\n        /* \"#utility.yul\":7402:7429   */\n      swap2\n      pop\n        /* \"#utility.yul\":7358:7439   */\n    tag_211:\n        /* \"#utility.yul\":7486:7488   */\n      0x20\n        /* \"#utility.yul\":7478:7484   */\n      dup3\n        /* \"#utility.yul\":7475:7489   */\n      lt\n        /* \"#utility.yul\":7455:7473   */\n      dup2\n        /* \"#utility.yul\":7452:7490   */\n      sub\n        /* \"#utility.yul\":7449:7533   */\n      tag_212\n      jumpi\n        /* \"#utility.yul\":7505:7523   */\n      tag_213\n      tag_104\n      jump\t// in\n    tag_213:\n        /* \"#utility.yul\":7449:7533   */\n    tag_212:\n        /* \"#utility.yul\":7270:7539   */\n      pop\n        /* \"#utility.yul\":7219:7539   */\n      swap2\n      swap1\n      pop\n      jump\t// out\n        /* \"#utility.yul\":7545:7719   */\n    tag_105:\n        /* \"#utility.yul\":7685:7711   */\n      0x446561646c696e6520686173206e6f74207061737365642e0000000000000000\n        /* \"#utility.yul\":7681:7682   */\n      0x00\n        /* \"#utility.yul\":7673:7679   */\n      dup3\n        /* \"#utility.yul\":7669:7683   */\n      add\n        /* \"#utility.yul\":7662:7712   */\n      mstore\n        /* \"#utility.yul\":7545:7719   */\n      pop\n      jump\t// out\n        /* \"#utility.yul\":7725:8091   */\n    tag_106:\n        /* \"#utility.yul\":7867:7870   */\n      0x00\n        /* \"#utility.yul\":7888:7955   */\n      tag_216\n        /* \"#utility.yul\":7952:7954   */\n      0x18\n        /* \"#utility.yul\":7947:7950   */\n      dup4\n        /* \"#utility.yul\":7888:7955   */\n      tag_88\n      jump\t// in\n    tag_216:\n        /* \"#utility.yul\":7881:7955   */\n      swap2\n      pop\n        /* \"#utility.yul\":7964:8057   */\n      tag_217\n        /* \"#utility.yul\":8053:8056   */\n      dup3\n        /* \"#utility.yul\":7964:8057   */\n      tag_105\n      jump\t// in\n    tag_217:\n        /* \"#utility.yul\":8082:8084   */\n      0x20\n        /* \"#utility.yul\":8077:8080   */\n      dup3\n        /* \"#utility.yul\":8073:8085   */\n      add\n        /* \"#utility.yul\":8066:8085   */\n      swap1\n      pop\n        /* \"#utility.yul\":7725:8091   */\n      swap2\n      swap1\n      pop\n      jump\t// out\n        /* \"#utility.yul\":8097:8516   */\n    tag_45:\n        /* \"#utility.yul\":8263:8267   */\n      0x00\n        /* \"#utility.yul\":8301:8303   */\n      0x20\n        /* \"#utility.yul\":8290:8299   */\n      dup3\n        /* \"#utility.yul\":8286:8304   */\n      add\n        /* \"#utility.yul\":8278:8304   */\n      swap1\n      pop\n        /* \"#utility.yul\":8350:8359   */\n      dup2\n        /* \"#utility.yul\":8344:8348   */\n      dup2\n        /* \"#utility.yul\":8340:8360   */\n      sub\n        /* \"#utility.yul\":8336:8337   */\n      0x00\n        /* \"#utility.yul\":8325:8334   */\n      dup4\n        /* \"#utility.yul\":8321:8338   */\n      add\n        /* \"#utility.yul\":8314:8361   */\n      mstore\n        /* \"#utility.yul\":8378:8509   */\n      tag_219\n        /* \"#utility.yul\":8504:8508   */\n      dup2\n        /* \"#utility.yul\":8378:8509   */\n      tag_106\n      jump\t// in\n    tag_219:\n        /* \"#utility.yul\":8370:8509   */\n      swap1\n      pop\n        /* \"#utility.yul\":8097:8516   */\n      swap2\n      swap1\n      pop\n      jump\t// out\n        /* \"#utility.yul\":8522:8751   */\n    tag_107:\n        /* \"#utility.yul\":8662:8696   */\n      0x4f6e6c79207468652070726f6a656374206f776e65722063616e207769746864\n        /* \"#utility.yul\":8658:8659   */\n      0x00\n        /* \"#utility.yul\":8650:8656   */\n      dup3\n        /* \"#utility.yul\":8646:8660   */\n      add\n        /* \"#utility.yul\":8639:8697   */\n      mstore\n        /* \"#utility.yul\":8731:8743   */\n      0x7261772066756e64732e00000000000000000000000000000000000000000000\n        /* \"#utility.yul\":8726:8728   */\n      0x20\n        /* \"#utility.yul\":8718:8724   */\n      dup3\n        /* \"#utility.yul\":8714:8729   */\n      add\n        /* \"#utility.yul\":8707:8744   */\n      mstore\n        /* \"#utility.yul\":8522:8751   */\n      pop\n      jump\t// out\n        /* \"#utility.yul\":8757:9123   */\n    tag_108:\n        /* \"#utility.yul\":8899:8902   */\n      0x00\n        /* \"#utility.yul\":8920:8987   */\n      tag_222\n        /* \"#utility.yul\":8984:8986   */\n      0x2a\n        /* \"#utility.yul\":8979:8982   */\n      dup4\n        /* \"#utility.yul\":8920:8987   */\n      tag_88\n      jump\t// in\n    tag_222:\n        /* \"#utility.yul\":8913:8987   */\n      swap2\n      pop\n        /* \"#utility.yul\":8996:9089   */\n      tag_223\n        /* \"#utility.yul\":9085:9088   */\n      dup3\n        /* \"#utility.yul\":8996:9089   */\n      tag_107\n      jump\t// in\n    tag_223:\n        /* \"#utility.yul\":9114:9116   */\n      0x40\n        /* \"#utility.yul\":9109:9112   */\n      dup3\n        /* \"#utility.yul\":9105:9117   */\n      add\n        /* \"#utility.yul\":9098:9117   */\n      swap1\n      pop\n        /* \"#utility.yul\":8757:9123   */\n      swap2\n      swap1\n      pop\n      jump\t// out\n        /* \"#utility.yul\":9129:9548   */\n    tag_48:\n        /* \"#utility.yul\":9295:9299   */\n      0x00\n        /* \"#utility.yul\":9333:9335   */\n      0x20\n        /* \"#utility.yul\":9322:9331   */\n      dup3\n        /* \"#utility.yul\":9318:9336   */\n      add\n        /* \"#utility.yul\":9310:9336   */\n      swap1\n      pop\n        /* \"#utility.yul\":9382:9391   */\n      dup2\n        /* \"#utility.yul\":9376:9380   */\n      dup2\n        /* \"#utility.yul\":9372:9392   */\n      sub\n        /* \"#utility.yul\":9368:9369   */\n      0x00\n        /* \"#utility.yul\":9357:9366   */\n      dup4\n        /* \"#utility.yul\":9353:9370   */\n      add\n        /* \"#utility.yul\":9346:9393   */\n      mstore\n        /* \"#utility.yul\":9410:9541   */\n      tag_225\n        /* \"#utility.yul\":9536:9540   */\n      dup2\n        /* \"#utility.yul\":9410:9541   */\n      tag_108\n      jump\t// in\n    tag_225:\n        /* \"#utility.yul\":9402:9541   */\n      swap1\n      pop\n        /* \"#utility.yul\":9129:9548   */\n      swap2\n      swap1\n      pop\n      jump\t// out\n        /* \"#utility.yul\":9554:9729   */\n    tag_109:\n        /* \"#utility.yul\":9694:9721   */\n      0x46756e64696e6720676f616c206e6f7420726561636865642e00000000000000\n        /* \"#utility.yul\":9690:9691   */\n      0x00\n        /* \"#utility.yul\":9682:9688   */\n      dup3\n        /* \"#utility.yul\":9678:9692   */\n      add\n        /* \"#utility.yul\":9671:9722   */\n      mstore\n        /* \"#utility.yul\":9554:9729   */\n      pop\n      jump\t// out\n        /* \"#utility.yul\":9735:10101   */\n    tag_110:\n        /* \"#utility.yul\":9877:9880   */\n      0x00\n        /* \"#utility.yul\":9898:9965   */\n      tag_228\n        /* \"#utility.yul\":9962:9964   */\n      0x19\n        /* \"#utility.yul\":9957:9960   */\n      dup4\n        /* \"#utility.yul\":9898:9965   */\n      tag_88\n      jump\t// in\n    tag_228:\n        /* \"#utility.yul\":9891:9965   */\n      swap2\n      pop\n        /* \"#utility.yul\":9974:10067   */\n      tag_229\n        /* \"#utility.yul\":10063:10066   */\n      dup3\n        /* \"#utility.yul\":9974:10067   */\n      tag_109\n      jump\t// in\n    tag_229:\n        /* \"#utility.yul\":10092:10094   */\n      0x20\n        /* \"#utility.yul\":10087:10090   */\n      dup3\n        /* \"#utility.yul\":10083:10095   */\n      add\n        /* \"#utility.yul\":10076:10095   */\n      swap1\n      pop\n        /* \"#utility.yul\":9735:10101   */\n      swap2\n      swap1\n      pop\n      jump\t// out\n        /* \"#utility.yul\":10107:10526   */\n    tag_51:\n        /* \"#utility.yul\":10273:10277   */\n      0x00\n        /* \"#utility.yul\":10311:10313   */\n      0x20\n        /* \"#utility.yul\":10300:10309   */\n      dup3\n        /* \"#utility.yul\":10296:10314   */\n      add\n        /* \"#utility.yul\":10288:10314   */\n      swap1\n      pop\n        /* \"#utility.yul\":10360:10369   */\n      dup2\n        /* \"#utility.yul\":10354:10358   */\n      dup2\n        /* \"#utility.yul\":10350:10370   */\n      sub\n        /* \"#utility.yul\":10346:10347   */\n      0x00\n        /* \"#utility.yul\":10335:10344   */\n      dup4\n        /* \"#utility.yul\":10331:10348   */\n      add\n        /* \"#utility.yul\":10324:10371   */\n      mstore\n        /* \"#utility.yul\":10388:10519   */\n      tag_231\n        /* \"#utility.yul\":10514:10518   */\n      dup2\n        /* \"#utility.yul\":10388:10519   */\n      tag_110\n      jump\t// in\n    tag_231:\n        /* \"#utility.yul\":10380:10519   */\n      swap1\n      pop\n        /* \"#utility.yul\":10107:10526   */\n      swap2\n      swap1\n      pop\n      jump\t// out\n        /* \"#utility.yul\":10532:10864   */\n    tag_55:\n        /* \"#utility.yul\":10653:10657   */\n      0x00\n        /* \"#utility.yul\":10691:10693   */\n      0x40\n        /* \"#utility.yul\":10680:10689   */\n      dup3\n        /* \"#utility.yul\":10676:10694   */\n      add\n        /* \"#utility.yul\":10668:10694   */\n      swap1\n      pop\n        /* \"#utility.yul\":10704:10775   */\n      tag_233\n        /* \"#utility.yul\":10772:10773   */\n      0x00\n        /* \"#utility.yul\":10761:10770   */\n      dup4\n        /* \"#utility.yul\":10757:10774   */\n      add\n        /* \"#utility.yul\":10748:10754   */\n      dup6\n        /* \"#utility.yul\":10704:10775   */\n      tag_86\n      jump\t// in\n    tag_233:\n        /* \"#utility.yul\":10785:10857   */\n      tag_234\n        /* \"#utility.yul\":10853:10855   */\n      0x20\n        /* \"#utility.yul\":10842:10851   */\n      dup4\n        /* \"#utility.yul\":10838:10856   */\n      add\n        /* \"#utility.yul\":10829:10835   */\n      dup5\n        /* \"#utility.yul\":10785:10857   */\n      tag_86\n      jump\t// in\n    tag_234:\n        /* \"#utility.yul\":10532:10864   */\n      swap4\n      swap3\n      pop\n      pop\n      pop\n      jump\t// out\n        /* \"#utility.yul\":10870:11050   */\n    tag_111:\n        /* \"#utility.yul\":10918:10995   */\n      0x4e487b7100000000000000000000000000000000000000000000000000000000\n        /* \"#utility.yul\":10915:10916   */\n      0x00\n        /* \"#utility.yul\":10908:10996   */\n      mstore\n        /* \"#utility.yul\":11015:11019   */\n      0x11\n        /* \"#utility.yul\":11012:11013   */\n      0x04\n        /* \"#utility.yul\":11005:11020   */\n      mstore\n        /* \"#utility.yul\":11039:11043   */\n      0x24\n        /* \"#utility.yul\":11036:11037   */\n      0x00\n        /* \"#utility.yul\":11029:11044   */\n      revert\n        /* \"#utility.yul\":11056:11289   */\n    tag_58:\n        /* \"#utility.yul\":11095:11098   */\n      0x00\n        /* \"#utility.yul\":11118:11142   */\n      tag_237\n        /* \"#utility.yul\":11136:11141   */\n      dup3\n        /* \"#utility.yul\":11118:11142   */\n      tag_83\n      jump\t// in\n    tag_237:\n        /* \"#utility.yul\":11109:11142   */\n      swap2\n      pop\n        /* \"#utility.yul\":11164:11230   */\n      0xffffffffffffffffffffffffffffffffffffffffffffffffffffffffffffffff\n        /* \"#utility.yul\":11157:11162   */\n      dup3\n        /* \"#utility.yul\":11154:11231   */\n      sub\n        /* \"#utility.yul\":11151:11254   */\n      tag_238\n      jumpi\n        /* \"#utility.yul\":11234:11252   */\n      tag_239\n      tag_111\n      jump\t// in\n    tag_239:\n        /* \"#utility.yul\":11151:11254   */\n    tag_238:\n        /* \"#utility.yul\":11281:11282   */\n      0x01\n        /* \"#utility.yul\":11274:11279   */\n      dup3\n        /* \"#utility.yul\":11270:11283   */\n      add\n        /* \"#utility.yul\":11263:11283   */\n      swap1\n      pop\n        /* \"#utility.yul\":11056:11289   */\n      swap2\n      swap1\n      pop\n      jump\t// out\n        /* \"#utility.yul\":11295:11705   */\n    tag_60:\n        /* \"#utility.yul\":11335:11342   */\n      0x00\n        /* \"#utility.yul\":11358:11378   */\n      tag_241\n        /* \"#utility.yul\":11376:11377   */\n      dup3\n        /* \"#utility.yul\":11358:11378   */\n      tag_83\n      jump\t// in\n    tag_241:\n        /* \"#utility.yul\":11353:11378   */\n      swap2\n      pop\n        /* \"#utility.yul\":11392:11412   */\n      tag_242\n        /* \"#utility.yul\":11410:11411   */\n      dup4\n        /* \"#utility.yul\":11392:11412   */\n      tag_83\n      jump\t// in\n    tag_242:\n        /* \"#utility.yul\":11387:11412   */\n      swap3\n      pop\n        /* \"#utility.yul\":11447:11448   */\n      dup3\n        /* \"#utility.yul\":11444:11445   */\n      dup3\n        /* \"#utility.yul\":11440:11449   */\n      mul\n        /* \"#utility.yul\":11469:11499   */\n      tag_243\n        /* \"#utility.yul\":11487:11498   */\n      dup2\n        /* \"#utility.yul\":11469:11499   */\n      tag_83\n      jump\t// in\n    tag_243:\n        /* \"#utility.yul\":11458:11499   */\n      swap2\n      pop\n        /* \"#utility.yul\":11648:11649   */\n      dup3\n        /* \"#utility.yul\":11639:11646   */\n      dup3\n        /* \"#utility.yul\":11635:11650   */\n      div\n        /* \"#utility.yul\":11632:11633   */\n      dup5\n        /* \"#utility.yul\":11629:11651   */\n      eq\n        /* \"#utility.yul\":11609:11610   */\n      dup4\n        /* \"#utility.yul\":11602:11611   */\n      iszero\n        /* \"#utility.yul\":11582:11665   */\n      or\n        /* \"#utility.yul\":11559:11698   */\n      tag_244\n      jumpi\n        /* \"#utility.yul\":11678:11696   */\n      tag_245\n      tag_111\n      jump\t// in\n    tag_245:\n        /* \"#utility.yul\":11559:11698   */\n    tag_244:\n        /* \"#utility.yul\":11343:11705   */\n      pop\n        /* \"#utility.yul\":11295:11705   */\n      swap3\n      swap2\n      pop\n      pop\n      jump\t// out\n        /* \"#utility.yul\":11711:11902   */\n    tag_62:\n        /* \"#utility.yul\":11751:11754   */\n      0x00\n        /* \"#utility.yul\":11770:11790   */\n      tag_247\n        /* \"#utility.yul\":11788:11789   */\n      dup3\n        /* \"#utility.yul\":11770:11790   */\n      tag_83\n      jump\t// in\n    tag_247:\n        /* \"#utility.yul\":11765:11790   */\n      swap2\n      pop\n        /* \"#utility.yul\":11804:11824   */\n      tag_248\n        /* \"#utility.yul\":11822:11823   */\n      dup4\n        /* \"#utility.yul\":11804:11824   */\n      tag_83\n      jump\t// in\n    tag_248:\n        /* \"#utility.yul\":11799:11824   */\n      swap3\n      pop\n        /* \"#utility.yul\":11847:11848   */\n      dup3\n        /* \"#utility.yul\":11844:11845   */\n      dup3\n        /* \"#utility.yul\":11840:11849   */\n      add\n        /* \"#utility.yul\":11833:11849   */\n      swap1\n      pop\n        /* \"#utility.yul\":11868:11871   */\n      dup1\n        /* \"#utility.yul\":11865:11866   */\n      dup3\n        /* \"#utility.yul\":11862:11872   */\n      gt\n        /* \"#utility.yul\":11859:11895   */\n      iszero\n      tag_249\n      jumpi\n        /* \"#utility.yul\":11875:11893   */\n      tag_250\n      tag_111\n      jump\t// in\n    tag_250:\n        /* \"#utility.yul\":11859:11895   */\n    tag_249:\n        /* \"#utility.yul\":11711:11902   */\n      swap3\n      swap2\n      pop\n      pop\n      jump\t// out\n        /* \"#utility.yul\":11908:12049   */\n    tag_112:\n        /* \"#utility.yul\":11957:11961   */\n      0x00\n        /* \"#utility.yul\":11980:11983   */\n      dup2\n        /* \"#utility.yul\":11972:11983   */\n      swap1\n      pop\n        /* \"#utility.yul\":12003:12006   */\n      dup2\n        /* \"#utility.yul\":12000:12001   */\n      0x00\n        /* \"#utility.yul\":11993:12007   */\n      mstore\n        /* \"#utility.yul\":12037:12041   */\n      0x20\n        /* \"#utility.yul\":12034:12035   */\n      0x00\n        /* \"#utility.yul\":12024:12042   */\n      keccak256\n        /* \"#utility.yul\":12016:12042   */\n      swap1\n      pop\n        /* \"#utility.yul\":11908:12049   */\n      swap2\n      swap1\n      pop\n      jump\t// out\n        /* \"#utility.yul\":12055:12148   */\n    tag_113:\n        /* \"#utility.yul\":12092:12098   */\n      0x00\n        /* \"#utility.yul\":12139:12141   */\n      0x20\n        /* \"#utility.yul\":12134:12136   */\n      0x1f\n        /* \"#utility.yul\":12127:12132   */\n      dup4\n        /* \"#utility.yul\":12123:12137   */\n      add\n        /* \"#utility.yul\":12119:12142   */\n      div\n        /* \"#utility.yul\":12109:12142   */\n      swap1\n      pop\n        /* \"#utility.yul\":12055:12148   */\n      swap2\n      swap1\n      pop\n      jump\t// out\n        /* \"#utility.yul\":12154:12261   */\n    tag_114:\n        /* \"#utility.yul\":12198:12206   */\n      0x00\n        /* \"#utility.yul\":12248:12253   */\n      dup3\n        /* \"#utility.yul\":12242:12246   */\n      dup3\n        /* \"#utility.yul\":12238:12254   */\n      shl\n        /* \"#utility.yul\":12217:12254   */\n      swap1\n      pop\n        /* \"#utility.yul\":12154:12261   */\n      swap3\n      swap2\n      pop\n      pop\n      jump\t// out\n        /* \"#utility.yul\":12267:12660   */\n    tag_115:\n        /* \"#utility.yul\":12336:12342   */\n      0x00\n        /* \"#utility.yul\":12386:12387   */\n      0x08\n        /* \"#utility.yul\":12374:12384   */\n      dup4\n        /* \"#utility.yul\":12370:12388   */\n      mul\n        /* \"#utility.yul\":12409:12506   */\n      tag_255\n        /* \"#utility.yul\":12439:12505   */\n      0xffffffffffffffffffffffffffffffffffffffffffffffffffffffffffffffff\n        /* \"#utility.yul\":12428:12437   */\n      dup3\n        /* \"#utility.yul\":12409:12506   */\n      tag_114\n      jump\t// in\n    tag_255:\n        /* \"#utility.yul\":12527:12566   */\n      tag_256\n        /* \"#utility.yul\":12557:12565   */\n      dup7\n        /* \"#utility.yul\":12546:12555   */\n      dup4\n        /* \"#utility.yul\":12527:12566   */\n      tag_114\n      jump\t// in\n    tag_256:\n        /* \"#utility.yul\":12515:12566   */\n      swap6\n      pop\n        /* \"#utility.yul\":12599:12603   */\n      dup1\n        /* \"#utility.yul\":12595:12604   */\n      not\n        /* \"#utility.yul\":12588:12593   */\n      dup5\n        /* \"#utility.yul\":12584:12605   */\n      and\n        /* \"#utility.yul\":12575:12605   */\n      swap4\n      pop\n        /* \"#utility.yul\":12648:12652   */\n      dup1\n        /* \"#utility.yul\":12638:12646   */\n      dup7\n        /* \"#utility.yul\":12634:12653   */\n      and\n        /* \"#utility.yul\":12627:12632   */\n      dup5\n        /* \"#utility.yul\":12624:12654   */\n      or\n        /* \"#utility.yul\":12614:12654   */\n      swap3\n      pop\n        /* \"#utility.yul\":12343:12660   */\n      pop\n      pop\n        /* \"#utility.yul\":12267:12660   */\n      swap4\n      swap3\n      pop\n      pop\n      pop\n      jump\t// out\n        /* \"#utility.yul\":12666:12726   */\n    tag_116:\n        /* \"#utility.yul\":12694:12697   */\n      0x00\n        /* \"#utility.yul\":12715:12720   */\n      dup2\n        /* \"#utility.yul\":12708:12720   */\n      swap1\n      pop\n        /* \"#utility.yul\":12666:12726   */\n      swap2\n      swap1\n      pop\n      jump\t// out\n        /* \"#utility.yul\":12732:12874   */\n    tag_117:\n        /* \"#utility.yul\":12782:12791   */\n      0x00\n        /* \"#utility.yul\":12815:12868   */\n      tag_259\n        /* \"#utility.yul\":12833:12867   */\n      tag_260\n        /* \"#utility.yul\":12842:12866   */\n      tag_261\n        /* \"#utility.yul\":12860:12865   */\n      dup5\n        /* \"#utility.yul\":12842:12866   */\n      tag_83\n      jump\t// in\n    tag_261:\n        /* \"#utility.yul\":12833:12867   */\n      tag_116\n      jump\t// in\n    tag_260:\n        /* \"#utility.yul\":12815:12868   */\n      tag_83\n      jump\t// in\n    tag_259:\n        /* \"#utility.yul\":12802:12868   */\n      swap1\n      pop\n        /* \"#utility.yul\":12732:12874   */\n      swap2\n      swap1\n      pop\n      jump\t// out\n        /* \"#utility.yul\":12880:12955   */\n    tag_118:\n        /* \"#utility.yul\":12923:12926   */\n      0x00\n        /* \"#utility.yul\":12944:12949   */\n      dup2\n        /* \"#utility.yul\":12937:12949   */\n      swap1\n      pop\n        /* \"#utility.yul\":12880:12955   */\n      swap2\n      swap1\n      pop\n      jump\t// out\n        /* \"#utility.yul\":12961:13230   */\n    tag_119:\n        /* \"#utility.yul\":13071:13110   */\n      tag_264\n        /* \"#utility.yul\":13102:13109   */\n      dup4\n        /* \"#utility.yul\":13071:13110   */\n      tag_117\n      jump\t// in\n    tag_264:\n        /* \"#utility.yul\":13132:13223   */\n      tag_265\n        /* \"#utility.yul\":13181:13222   */\n      tag_266\n        /* \"#utility.yul\":13205:13221   */\n      dup3\n        /* \"#utility.yul\":13181:13222   */\n      tag_118\n      jump\t// in\n    tag_266:\n        /* \"#utility.yul\":13173:13179   */\n      dup5\n        /* \"#utility.yul\":13166:13170   */\n      dup5\n        /* \"#utility.yul\":13160:13171   */\n      sload\n        /* \"#utility.yul\":13132:13223   */\n      tag_115\n      jump\t// in\n    tag_265:\n        /* \"#utility.yul\":13126:13130   */\n      dup3\n        /* \"#utility.yul\":13119:13224   */\n      sstore\n        /* \"#utility.yul\":13037:13230   */\n      pop\n        /* \"#utility.yul\":12961:13230   */\n      pop\n      pop\n      pop\n      jump\t// out\n        /* \"#utility.yul\":13236:13309   */\n    tag_120:\n        /* \"#utility.yul\":13281:13284   */\n      0x00\n        /* \"#utility.yul\":13236:13309   */\n      swap1\n      jump\t// out\n        /* \"#utility.yul\":13315:13504   */\n    tag_121:\n        /* \"#utility.yul\":13392:13424   */\n      tag_269\n      tag_120\n      jump\t// in\n    tag_269:\n        /* \"#utility.yul\":13433:13498   */\n      tag_270\n        /* \"#utility.yul\":13491:13497   */\n      dup2\n        /* \"#utility.yul\":13483:13489   */\n      dup5\n        /* \"#utility.yul\":13477:13481   */\n      dup5\n        /* \"#utility.yul\":13433:13498   */\n      tag_119\n      jump\t// in\n    tag_270:\n        /* \"#utility.yul\":13368:13504   */\n      pop\n        /* \"#utility.yul\":13315:13504   */\n      pop\n      pop\n      jump\t// out\n        /* \"#utility.yul\":13510:13696   */\n    tag_122:\n        /* \"#utility.yul\":13570:13690   */\n    tag_272:\n        /* \"#utility.yul\":13587:13590   */\n      dup2\n        /* \"#utility.yul\":13580:13585   */\n      dup2\n        /* \"#utility.yul\":13577:13591   */\n      lt\n        /* \"#utility.yul\":13570:13690   */\n      iszero\n      tag_274\n      jumpi\n        /* \"#utility.yul\":13641:13680   */\n      tag_275\n        /* \"#utility.yul\":13678:13679   */\n      0x00\n        /* \"#utility.yul\":13671:13676   */\n      dup3\n        /* \"#utility.yul\":13641:13680   */\n      tag_121\n      jump\t// in\n    tag_275:\n        /* \"#utility.yul\":13614:13615   */\n      0x01\n        /* \"#utility.yul\":13607:13612   */\n      dup2\n        /* \"#utility.yul\":13603:13616   */\n      add\n        /* \"#utility.yul\":13594:13616   */\n      swap1\n      pop\n        /* \"#utility.yul\":13570:13690   */\n      jump(tag_272)\n    tag_274:\n        /* \"#utility.yul\":13510:13696   */\n      pop\n      pop\n      jump\t// out\n        /* \"#utility.yul\":13702:14245   */\n    tag_123:\n        /* \"#utility.yul\":13803:13805   */\n      0x1f\n        /* \"#utility.yul\":13798:13801   */\n      dup3\n        /* \"#utility.yul\":13795:13806   */\n      gt\n        /* \"#utility.yul\":13792:14238   */\n      iszero\n      tag_277\n      jumpi\n        /* \"#utility.yul\":13837:13875   */\n      tag_278\n        /* \"#utility.yul\":13869:13874   */\n      dup2\n        /* \"#utility.yul\":13837:13875   */\n      tag_112\n      jump\t// in\n    tag_278:\n        /* \"#utility.yul\":13921:13950   */\n      tag_279\n        /* \"#utility.yul\":13939:13949   */\n      dup5\n        /* \"#utility.yul\":13921:13950   */\n      tag_113\n      jump\t// in\n    tag_279:\n        /* \"#utility.yul\":13911:13919   */\n      dup2\n        /* \"#utility.yul\":13907:13951   */\n      add\n        /* \"#utility.yul\":14104:14106   */\n      0x20\n        /* \"#utility.yul\":14092:14102   */\n      dup6\n        /* \"#utility.yul\":14089:14107   */\n      lt\n        /* \"#utility.yul\":14086:14135   */\n      iszero\n      tag_280\n      jumpi\n        /* \"#utility.yul\":14125:14133   */\n      dup2\n        /* \"#utility.yul\":14110:14133   */\n      swap1\n      pop\n        /* \"#utility.yul\":14086:14135   */\n    tag_280:\n        /* \"#utility.yul\":14148:14228   */\n      tag_281\n        /* \"#utility.yul\":14204:14226   */\n      tag_282\n        /* \"#utility.yul\":14222:14225   */\n      dup6\n        /* \"#utility.yul\":14204:14226   */\n      tag_113\n      jump\t// in\n    tag_282:\n        /* \"#utility.yul\":14194:14202   */\n      dup4\n        /* \"#utility.yul\":14190:14227   */\n      add\n        /* \"#utility.yul\":14177:14188   */\n      dup3\n        /* \"#utility.yul\":14148:14228   */\n      tag_122\n      jump\t// in\n    tag_281:\n        /* \"#utility.yul\":13807:14238   */\n      pop\n      pop\n        /* \"#utility.yul\":13792:14238   */\n    tag_277:\n        /* \"#utility.yul\":13702:14245   */\n      pop\n      pop\n      pop\n      jump\t// out\n        /* \"#utility.yul\":14251:14368   */\n    tag_124:\n        /* \"#utility.yul\":14305:14313   */\n      0x00\n        /* \"#utility.yul\":14355:14360   */\n      dup3\n        /* \"#utility.yul\":14349:14353   */\n      dup3\n        /* \"#utility.yul\":14345:14361   */\n      shr\n        /* \"#utility.yul\":14324:14361   */\n      swap1\n      pop\n        /* \"#utility.yul\":14251:14368   */\n      swap3\n      swap2\n      pop\n      pop\n      jump\t// out\n        /* \"#utility.yul\":14374:14543   */\n    tag_125:\n        /* \"#utility.yul\":14418:14424   */\n      0x00\n        /* \"#utility.yul\":14451:14502   */\n      tag_285\n        /* \"#utility.yul\":14499:14500   */\n      0x00\n        /* \"#utility.yul\":14495:14501   */\n      not\n        /* \"#utility.yul\":14487:14492   */\n      dup5\n        /* \"#utility.yul\":14484:14485   */\n      0x08\n        /* \"#utility.yul\":14480:14493   */\n      mul\n        /* \"#utility.yul\":14451:14502   */\n      tag_124\n      jump\t// in\n    tag_285:\n        /* \"#utility.yul\":14447:14503   */\n      not\n        /* \"#utility.yul\":14532:14536   */\n      dup1\n        /* \"#utility.yul\":14526:14530   */\n      dup4\n        /* \"#utility.yul\":14522:14537   */\n      and\n        /* \"#utility.yul\":14512:14537   */\n      swap2\n      pop\n        /* \"#utility.yul\":14425:14543   */\n      pop\n        /* \"#utility.yul\":14374:14543   */\n      swap3\n      swap2\n      pop\n      pop\n      jump\t// out\n        /* \"#utility.yul\":14548:14843   */\n    tag_126:\n        /* \"#utility.yul\":14624:14628   */\n      0x00\n        /* \"#utility.yul\":14770:14799   */\n      tag_287\n        /* \"#utility.yul\":14795:14798   */\n      dup4\n        /* \"#utility.yul\":14789:14793   */\n      dup4\n        /* \"#utility.yul\":14770:14799   */\n      tag_125\n      jump\t// in\n    tag_287:\n        /* \"#utility.yul\":14762:14799   */\n      swap2\n      pop\n        /* \"#utility.yul\":14832:14835   */\n      dup3\n        /* \"#utility.yul\":14829:14830   */\n      0x02\n        /* \"#utility.yul\":14825:14836   */\n      mul\n        /* \"#utility.yul\":14819:14823   */\n      dup3\n        /* \"#utility.yul\":14816:14837   */\n      or\n        /* \"#utility.yul\":14808:14837   */\n      swap1\n      pop\n        /* \"#utility.yul\":14548:14843   */\n      swap3\n      swap2\n      pop\n      pop\n      jump\t// out\n        /* \"#utility.yul\":14848:16243   */\n    tag_64:\n        /* \"#utility.yul\":14965:15002   */\n      tag_289\n        /* \"#utility.yul\":14998:15001   */\n      dup3\n        /* \"#utility.yul\":14965:15002   */\n      tag_87\n      jump\t// in\n    tag_289:\n        /* \"#utility.yul\":15067:15085   */\n      0xffffffffffffffff\n        /* \"#utility.yul\":15059:15065   */\n      dup2\n        /* \"#utility.yul\":15056:15086   */\n      gt\n        /* \"#utility.yul\":15053:15109   */\n      iszero\n      tag_290\n      jumpi\n        /* \"#utility.yul\":15089:15107   */\n      tag_291\n      tag_97\n      jump\t// in\n    tag_291:\n        /* \"#utility.yul\":15053:15109   */\n    tag_290:\n        /* \"#utility.yul\":15133:15171   */\n      tag_292\n        /* \"#utility.yul\":15165:15169   */\n      dup3\n        /* \"#utility.yul\":15159:15170   */\n      sload\n        /* \"#utility.yul\":15133:15171   */\n      tag_32\n      jump\t// in\n    tag_292:\n        /* \"#utility.yul\":15218:15285   */\n      tag_293\n        /* \"#utility.yul\":15278:15284   */\n      dup3\n        /* \"#utility.yul\":15270:15276   */\n      dup3\n        /* \"#utility.yul\":15264:15268   */\n      dup6\n        /* \"#utility.yul\":15218:15285   */\n      tag_123\n      jump\t// in\n    tag_293:\n        /* \"#utility.yul\":15312:15313   */\n      0x00\n        /* \"#utility.yul\":15336:15340   */\n      0x20\n        /* \"#utility.yul\":15323:15340   */\n      swap1\n      pop\n        /* \"#utility.yul\":15368:15370   */\n      0x1f\n        /* \"#utility.yul\":15360:15366   */\n      dup4\n        /* \"#utility.yul\":15357:15371   */\n      gt\n        /* \"#utility.yul\":15385:15386   */\n      0x01\n        /* \"#utility.yul\":15380:15998   */\n      dup2\n      eq\n      tag_295\n      jumpi\n        /* \"#utility.yul\":16042:16043   */\n      0x00\n        /* \"#utility.yul\":16059:16065   */\n      dup5\n        /* \"#utility.yul\":16056:16133   */\n      iszero\n      tag_296\n      jumpi\n        /* \"#utility.yul\":16108:16117   */\n      dup3\n        /* \"#utility.yul\":16103:16106   */\n      dup8\n        /* \"#utility.yul\":16099:16118   */\n      add\n        /* \"#utility.yul\":16093:16119   */\n      mload\n        /* \"#utility.yul\":16084:16119   */\n      swap1\n      pop\n        /* \"#utility.yul\":16056:16133   */\n    tag_296:\n        /* \"#utility.yul\":16159:16226   */\n      tag_297\n        /* \"#utility.yul\":16219:16225   */\n      dup6\n        /* \"#utility.yul\":16212:16217   */\n      dup3\n        /* \"#utility.yul\":16159:16226   */\n      tag_126\n      jump\t// in\n    tag_297:\n        /* \"#utility.yul\":16153:16157   */\n      dup7\n        /* \"#utility.yul\":16146:16227   */\n      sstore\n        /* \"#utility.yul\":16015:16237   */\n      pop\n        /* \"#utility.yul\":15350:16237   */\n      jump(tag_294)\n        /* \"#utility.yul\":15380:15998   */\n    tag_295:\n        /* \"#utility.yul\":15432:15436   */\n      0x1f\n        /* \"#utility.yul\":15428:15437   */\n      not\n        /* \"#utility.yul\":15420:15426   */\n      dup5\n        /* \"#utility.yul\":15416:15438   */\n      and\n        /* \"#utility.yul\":15466:15503   */\n      tag_298\n        /* \"#utility.yul\":15498:15502   */\n      dup7\n        /* \"#utility.yul\":15466:15503   */\n      tag_112\n      jump\t// in\n    tag_298:\n        /* \"#utility.yul\":15525:15526   */\n      0x00\n        /* \"#utility.yul\":15539:15747   */\n    tag_299:\n        /* \"#utility.yul\":15553:15560   */\n      dup3\n        /* \"#utility.yul\":15550:15551   */\n      dup2\n        /* \"#utility.yul\":15547:15561   */\n      lt\n        /* \"#utility.yul\":15539:15747   */\n      iszero\n      tag_301\n      jumpi\n        /* \"#utility.yul\":15632:15641   */\n      dup5\n        /* \"#utility.yul\":15627:15630   */\n      dup10\n        /* \"#utility.yul\":15623:15642   */\n      add\n        /* \"#utility.yul\":15617:15643   */\n      mload\n        /* \"#utility.yul\":15609:15615   */\n      dup3\n        /* \"#utility.yul\":15602:15644   */\n      sstore\n        /* \"#utility.yul\":15683:15684   */\n      0x01\n        /* \"#utility.yul\":15675:15681   */\n      dup3\n        /* \"#utility.yul\":15671:15685   */\n      add\n        /* \"#utility.yul\":15661:15685   */\n      swap2\n      pop\n        /* \"#utility.yul\":15730:15732   */\n      0x20\n        /* \"#utility.yul\":15719:15728   */\n      dup6\n        /* \"#utility.yul\":15715:15733   */\n      add\n        /* \"#utility.yul\":15702:15733   */\n      swap5\n      pop\n        /* \"#utility.yul\":15576:15580   */\n      0x20\n        /* \"#utility.yul\":15573:15574   */\n      dup2\n        /* \"#utility.yul\":15569:15581   */\n      add\n        /* \"#utility.yul\":15564:15581   */\n      swap1\n      pop\n        /* \"#utility.yul\":15539:15747   */\n      jump(tag_299)\n    tag_301:\n        /* \"#utility.yul\":15775:15781   */\n      dup7\n        /* \"#utility.yul\":15766:15773   */\n      dup4\n        /* \"#utility.yul\":15763:15782   */\n      lt\n        /* \"#utility.yul\":15760:15939   */\n      iszero\n      tag_302\n      jumpi\n        /* \"#utility.yul\":15833:15842   */\n      dup5\n        /* \"#utility.yul\":15828:15831   */\n      dup10\n        /* \"#utility.yul\":15824:15843   */\n      add\n        /* \"#utility.yul\":15818:15844   */\n      mload\n        /* \"#utility.yul\":15876:15924   */\n      tag_303\n        /* \"#utility.yul\":15918:15922   */\n      0x1f\n        /* \"#utility.yul\":15910:15916   */\n      dup10\n        /* \"#utility.yul\":15906:15923   */\n      and\n        /* \"#utility.yul\":15895:15904   */\n      dup3\n        /* \"#utility.yul\":15876:15924   */\n      tag_125\n      jump\t// in\n    tag_303:\n        /* \"#utility.yul\":15868:15874   */\n      dup4\n        /* \"#utility.yul\":15861:15925   */\n      sstore\n        /* \"#utility.yul\":15783:15939   */\n      pop\n        /* \"#utility.yul\":15760:15939   */\n    tag_302:\n        /* \"#utility.yul\":15985:15986   */\n      0x01\n        /* \"#utility.yul\":15981:15982   */\n      0x02\n        /* \"#utility.yul\":15973:15979   */\n      dup9\n        /* \"#utility.yul\":15969:15983   */\n      mul\n        /* \"#utility.yul\":15965:15987   */\n      add\n        /* \"#utility.yul\":15959:15963   */\n      dup9\n        /* \"#utility.yul\":15952:15988   */\n      sstore\n        /* \"#utility.yul\":15387:15998   */\n      pop\n      pop\n      pop\n        /* \"#utility.yul\":15350:16237   */\n    tag_294:\n      pop\n        /* \"#utility.yul\":14940:16243   */\n      pop\n      pop\n      pop\n        /* \"#utility.yul\":14848:16243   */\n      pop\n      pop\n      jump\t// out\n        /* \"#utility.yul\":16249:16345   */\n    tag_127:\n        /* \"#utility.yul\":16286:16293   */\n      0x00\n        /* \"#utility.yul\":16315:16339   */\n      tag_305\n        /* \"#utility.yul\":16333:16338   */\n      dup3\n        /* \"#utility.yul\":16315:16339   */\n      tag_92\n      jump\t// in\n    tag_305:\n        /* \"#utility.yul\":16304:16339   */\n      swap1\n      pop\n        /* \"#utility.yul\":16249:16345   */\n      swap2\n      swap1\n      pop\n      jump\t// out\n        /* \"#utility.yul\":16351:16469   */\n    tag_128:\n        /* \"#utility.yul\":16438:16462   */\n      tag_307\n        /* \"#utility.yul\":16456:16461   */\n      dup2\n        /* \"#utility.yul\":16438:16462   */\n      tag_127\n      jump\t// in\n    tag_307:\n        /* \"#utility.yul\":16433:16436   */\n      dup3\n        /* \"#utility.yul\":16426:16463   */\n      mstore\n        /* \"#utility.yul\":16351:16469   */\n      pop\n      pop\n      jump\t// out\n        /* \"#utility.yul\":16475:17432   */\n    tag_69:\n        /* \"#utility.yul\":16748:16752   */\n      0x00\n        /* \"#utility.yul\":16786:16789   */\n      0xc0\n        /* \"#utility.yul\":16775:16784   */\n      dup3\n        /* \"#utility.yul\":16771:16790   */\n      add\n        /* \"#utility.yul\":16763:16790   */\n      swap1\n      pop\n        /* \"#utility.yul\":16800:16871   */\n      tag_309\n        /* \"#utility.yul\":16868:16869   */\n      0x00\n        /* \"#utility.yul\":16857:16866   */\n      dup4\n        /* \"#utility.yul\":16853:16870   */\n      add\n        /* \"#utility.yul\":16844:16850   */\n      dup10\n        /* \"#utility.yul\":16800:16871   */\n      tag_86\n      jump\t// in\n    tag_309:\n        /* \"#utility.yul\":16918:16927   */\n      dup2\n        /* \"#utility.yul\":16912:16916   */\n      dup2\n        /* \"#utility.yul\":16908:16928   */\n      sub\n        /* \"#utility.yul\":16903:16905   */\n      0x20\n        /* \"#utility.yul\":16892:16901   */\n      dup4\n        /* \"#utility.yul\":16888:16906   */\n      add\n        /* \"#utility.yul\":16881:16929   */\n      mstore\n        /* \"#utility.yul\":16946:17024   */\n      tag_310\n        /* \"#utility.yul\":17019:17023   */\n      dup2\n        /* \"#utility.yul\":17010:17016   */\n      dup9\n        /* \"#utility.yul\":16946:17024   */\n      tag_91\n      jump\t// in\n    tag_310:\n        /* \"#utility.yul\":16938:17024   */\n      swap1\n      pop\n        /* \"#utility.yul\":17071:17080   */\n      dup2\n        /* \"#utility.yul\":17065:17069   */\n      dup2\n        /* \"#utility.yul\":17061:17081   */\n      sub\n        /* \"#utility.yul\":17056:17058   */\n      0x40\n        /* \"#utility.yul\":17045:17054   */\n      dup4\n        /* \"#utility.yul\":17041:17059   */\n      add\n        /* \"#utility.yul\":17034:17082   */\n      mstore\n        /* \"#utility.yul\":17099:17177   */\n      tag_311\n        /* \"#utility.yul\":17172:17176   */\n      dup2\n        /* \"#utility.yul\":17163:17169   */\n      dup8\n        /* \"#utility.yul\":17099:17177   */\n      tag_91\n      jump\t// in\n    tag_311:\n        /* \"#utility.yul\":17091:17177   */\n      swap1\n      pop\n        /* \"#utility.yul\":17187:17259   */\n      tag_312\n        /* \"#utility.yul\":17255:17257   */\n      0x60\n        /* \"#utility.yul\":17244:17253   */\n      dup4\n        /* \"#utility.yul\":17240:17258   */\n      add\n        /* \"#utility.yul\":17231:17237   */\n      dup7\n        /* \"#utility.yul\":17187:17259   */\n      tag_86\n      jump\t// in\n    tag_312:\n        /* \"#utility.yul\":17269:17342   */\n      tag_313\n        /* \"#utility.yul\":17337:17340   */\n      0x80\n        /* \"#utility.yul\":17326:17335   */\n      dup4\n        /* \"#utility.yul\":17322:17341   */\n      add\n        /* \"#utility.yul\":17313:17319   */\n      dup6\n        /* \"#utility.yul\":17269:17342   */\n      tag_86\n      jump\t// in\n    tag_313:\n        /* \"#utility.yul\":17352:17425   */\n      tag_314\n        /* \"#utility.yul\":17420:17423   */\n      0xa0\n        /* \"#utility.yul\":17409:17418   */\n      dup4\n        /* \"#utility.yul\":17405:17424   */\n      add\n        /* \"#utility.yul\":17396:17402   */\n      dup5\n        /* \"#utility.yul\":17352:17425   */\n      tag_128\n      jump\t// in\n    tag_314:\n        /* \"#utility.yul\":16475:17432   */\n      swap8\n      swap7\n      pop\n      pop\n      pop\n      pop\n      pop\n      pop\n      pop\n      jump\t// out\n        /* \"#utility.yul\":17438:17608   */\n    tag_129:\n        /* \"#utility.yul\":17578:17600   */\n      0x446561646c696e6520686173207061737365642e000000000000000000000000\n        /* \"#utility.yul\":17574:17575   */\n      0x00\n        /* \"#utility.yul\":17566:17572   */\n      dup3\n        /* \"#utility.yul\":17562:17576   */\n      add\n        /* \"#utility.yul\":17555:17601   */\n      mstore\n        /* \"#utility.yul\":17438:17608   */\n      pop\n      jump\t// out\n        /* \"#utility.yul\":17614:17980   */\n    tag_130:\n        /* \"#utility.yul\":17756:17759   */\n      0x00\n        /* \"#utility.yul\":17777:17844   */\n      tag_317\n        /* \"#utility.yul\":17841:17843   */\n      0x14\n        /* \"#utility.yul\":17836:17839   */\n      dup4\n        /* \"#utility.yul\":17777:17844   */\n      tag_88\n      jump\t// in\n    tag_317:\n        /* \"#utility.yul\":17770:17844   */\n      swap2\n      pop\n        /* \"#utility.yul\":17853:17946   */\n      tag_318\n        /* \"#utility.yul\":17942:17945   */\n      dup3\n        /* \"#utility.yul\":17853:17946   */\n      tag_129\n      jump\t// in\n    tag_318:\n        /* \"#utility.yul\":17971:17973   */\n      0x20\n        /* \"#utility.yul\":17966:17969   */\n      dup3\n        /* \"#utility.yul\":17962:17974   */\n      add\n        /* \"#utility.yul\":17955:17974   */\n      swap1\n      pop\n        /* \"#utility.yul\":17614:17980   */\n      swap2\n      swap1\n      pop\n      jump\t// out\n        /* \"#utility.yul\":17986:18405   */\n    tag_73:\n        /* \"#utility.yul\":18152:18156   */\n      0x00\n        /* \"#utility.yul\":18190:18192   */\n      0x20\n        /* \"#utility.yul\":18179:18188   */\n      dup3\n        /* \"#utility.yul\":18175:18193   */\n      add\n        /* \"#utility.yul\":18167:18193   */\n      swap1\n      pop\n        /* \"#utility.yul\":18239:18248   */\n      dup2\n        /* \"#utility.yul\":18233:18237   */\n      dup2\n        /* \"#utility.yul\":18229:18249   */\n      sub\n        /* \"#utility.yul\":18225:18226   */\n      0x00\n        /* \"#utility.yul\":18214:18223   */\n      dup4\n        /* \"#utility.yul\":18210:18227   */\n      add\n        /* \"#utility.yul\":18203:18250   */\n      mstore\n        /* \"#utility.yul\":18267:18398   */\n      tag_320\n        /* \"#utility.yul\":18393:18397   */\n      dup2\n        /* \"#utility.yul\":18267:18398   */\n      tag_130\n      jump\t// in\n    tag_320:\n        /* \"#utility.yul\":18259:18398   */\n      swap1\n      pop\n        /* \"#utility.yul\":17986:18405   */\n      swap2\n      swap1\n      pop\n      jump\t// out\n        /* \"#utility.yul\":18411:18640   */\n    tag_131:\n        /* \"#utility.yul\":18551:18585   */\n      0x446f6e6174696f6e20616d6f756e74206d757374206265206772656174657220\n        /* \"#utility.yul\":18547:18548   */\n      0x00\n        /* \"#utility.yul\":18539:18545   */\n      dup3\n        /* \"#utility.yul\":18535:18549   */\n      add\n        /* \"#utility.yul\":18528:18586   */\n      mstore\n        /* \"#utility.yul\":18620:18632   */\n      0x7468616e207a65726f2e00000000000000000000000000000000000000000000\n        /* \"#utility.yul\":18615:18617   */\n      0x20\n        /* \"#utility.yul\":18607:18613   */\n      dup3\n        /* \"#utility.yul\":18603:18618   */\n      add\n        /* \"#utility.yul\":18596:18633   */\n      mstore\n        /* \"#utility.yul\":18411:18640   */\n      pop\n      jump\t// out\n        /* \"#utility.yul\":18646:19012   */\n    tag_132:\n        /* \"#utility.yul\":18788:18791   */\n      0x00\n        /* \"#utility.yul\":18809:18876   */\n      tag_323\n        /* \"#utility.yul\":18873:18875   */\n      0x2a\n        /* \"#utility.yul\":18868:18871   */\n      dup4\n        /* \"#utility.yul\":18809:18876   */\n      tag_88\n      jump\t// in\n    tag_323:\n        /* \"#utility.yul\":18802:18876   */\n      swap2\n      pop\n        /* \"#utility.yul\":18885:18978   */\n      tag_324\n        /* \"#utility.yul\":18974:18977   */\n      dup3\n        /* \"#utility.yul\":18885:18978   */\n      tag_131\n      jump\t// in\n    tag_324:\n        /* \"#utility.yul\":19003:19005   */\n      0x40\n        /* \"#utility.yul\":18998:19001   */\n      dup3\n        /* \"#utility.yul\":18994:19006   */\n      add\n        /* \"#utility.yul\":18987:19006   */\n      swap1\n      pop\n        /* \"#utility.yul\":18646:19012   */\n      swap2\n      swap1\n      pop\n      jump\t// out\n        /* \"#utility.yul\":19018:19437   */\n    tag_76:\n        /* \"#utility.yul\":19184:19188   */\n      0x00\n        /* \"#utility.yul\":19222:19224   */\n      0x20\n        /* \"#utility.yul\":19211:19220   */\n      dup3\n        /* \"#utility.yul\":19207:19225   */\n      add\n        /* \"#utility.yul\":19199:19225   */\n      swap1\n      pop\n        /* \"#utility.yul\":19271:19280   */\n      dup2\n        /* \"#utility.yul\":19265:19269   */\n      dup2\n        /* \"#utility.yul\":19261:19281   */\n      sub\n        /* \"#utility.yul\":19257:19258   */\n      0x00\n        /* \"#utility.yul\":19246:19255   */\n      dup4\n        /* \"#utility.yul\":19242:19259   */\n      add\n        /* \"#utility.yul\":19235:19282   */\n      mstore\n        /* \"#utility.yul\":19299:19430   */\n      tag_326\n        /* \"#utility.yul\":19425:19429   */\n      dup2\n        /* \"#utility.yul\":19299:19430   */\n      tag_132\n      jump\t// in\n    tag_326:\n        /* \"#utility.yul\":19291:19430   */\n      swap1\n      pop\n        /* \"#utility.yul\":19018:19437   */\n      swap2\n      swap1\n      pop\n      jump\t// out\n        /* \"#utility.yul\":19443:19885   */\n    tag_79:\n        /* \"#utility.yul\":19592:19596   */\n      0x00\n        /* \"#utility.yul\":19630:19632   */\n      0x60\n        /* \"#utility.yul\":19619:19628   */\n      dup3\n        /* \"#utility.yul\":19615:19633   */\n      add\n        /* \"#utility.yul\":19607:19633   */\n      swap1\n      pop\n        /* \"#utility.yul\":19643:19714   */\n      tag_328\n        /* \"#utility.yul\":19711:19712   */\n      0x00\n        /* \"#utility.yul\":19700:19709   */\n      dup4\n        /* \"#utility.yul\":19696:19713   */\n      add\n        /* \"#utility.yul\":19687:19693   */\n      dup7\n        /* \"#utility.yul\":19643:19714   */\n      tag_86\n      jump\t// in\n    tag_328:\n        /* \"#utility.yul\":19724:19796   */\n      tag_329\n        /* \"#utility.yul\":19792:19794   */\n      0x20\n        /* \"#utility.yul\":19781:19790   */\n      dup4\n        /* \"#utility.yul\":19777:19795   */\n      add\n        /* \"#utility.yul\":19768:19774   */\n      dup6\n        /* \"#utility.yul\":19724:19796   */\n      tag_86\n      jump\t// in\n    tag_329:\n        /* \"#utility.yul\":19806:19878   */\n      tag_330\n        /* \"#utility.yul\":19874:19876   */\n      0x40\n        /* \"#utility.yul\":19863:19872   */\n      dup4\n        /* \"#utility.yul\":19859:19877   */\n      add\n        /* \"#utility.yul\":19850:19856   */\n      dup5\n        /* \"#utility.yul\":19806:19878   */\n      tag_128\n      jump\t// in\n    tag_330:\n        /* \"#utility.yul\":19443:19885   */\n      swap5\n      swap4\n      pop\n      pop\n      pop\n      pop\n      jump\t// out\n\n    auxdata: 0xa26469706673582212206e22f44e383f1a685d4bba9d044184e4751062ea5bd5778a6f7a40dbc5aee46b64736f6c634300081a0033\n}\n",
				"bytecode": {
					"linkReferences": {},
					"object": "6080604052348015600e575f80fd5b506111aa8061001c5f395ff3fe608060405260043610610049575f3560e01c8063107046bd1461004d578063155dd5ee1461008f57806336fbad26146100b757806394ba9709146100e1578063f14faf6f14610109575b5f80fd5b348015610058575f80fd5b50610073600480360381019061006e9190610741565b610125565b604051610086979695949392919061082a565b60405180910390f35b34801561009a575f80fd5b506100b560048036038101906100b09190610741565b61028d565b005b3480156100c2575f80fd5b506100cb610478565b6040516100d891906108a5565b60405180910390f35b3480156100ec575f80fd5b50610107600480360381019061010291906109ea565b61047e565b005b610123600480360381019061011e9190610741565b610608565b005b5f602052805f5260405f205f91509050805f01549080600101805461014990610ab3565b80601f016020809104026020016040519081016040528092919081815260200182805461017590610ab3565b80156101c05780601f10610197576101008083540402835291602001916101c0565b820191905f5260205f20905b8154815290600101906020018083116101a357829003601f168201915b5050505050908060020180546101d590610ab3565b80601f016020809104026020016040519081016040528092919081815260200182805461020190610ab3565b801561024c5780601f106102235761010080835404028352916020019161024c565b820191905f5260205f20905b81548152906001019060200180831161022f57829003601f168201915b505050505090806003015490806004015490806005015490806006015f9054906101000a900473ffffffffffffffffffffffffffffffffffffffff16905087565b5f805f8381526020019081526020015f209050806005015442116102e6576040517f08c379a00000000000000000000000000000000000000000000000000000000081526004016102dd90610b2d565b60405180910390fd5b806006015f9054906101000a900473ffffffffffffffffffffffffffffffffffffffff1673ffffffffffffffffffffffffffffffffffffffff163373ffffffffffffffffffffffffffffffffffffffff1614610377576040517f08c379a000000000000000000000000000000000000000000000000000000000815260040161036e90610bbb565b60405180910390fd5b8060030154816004015410156103c2576040517f08c379a00000000000000000000000000000000000000000000000000000000081526004016103b990610c23565b60405180910390fd5b5f816004015490505f8260040181905550816006015f9054906101000a900473ffffffffffffffffffffffffffffffffffffffff1673ffffffffffffffffffffffffffffffffffffffff166108fc8290811502906040515f60405180830381858888f19350505050158015610439573d5f803e3d5ffd5b507fd66662c0ded9e58fd31d5e44944bcfd07ffc15e6927ecc1382e7941cb7bd24c4838260405161046b929190610c41565b60405180910390a1505050565b60015481565b60015f81548092919061049090610c95565b91905055506040518060e0016040528060015481526020018581526020018481526020018381526020015f815260200162015180836104cf9190610cdc565b426104da9190610d1d565b81526020013373ffffffffffffffffffffffffffffffffffffffff168152505f8060015481526020019081526020015f205f820151815f015560208201518160010190816105289190610eed565b50604082015181600201908161053e9190610eed565b50606082015181600301556080820151816004015560a0820151816005015560c0820151816006015f6101000a81548173ffffffffffffffffffffffffffffffffffffffff021916908373ffffffffffffffffffffffffffffffffffffffff1602179055509050507fdbe1c32e03d5a1f775a4db60a0531d3d8610aaf0621374d9a265ad9f1f2b54f360015485858562015180866105dc9190610cdc565b426105e79190610d1d565b336040516105fa96959493929190610fdc565b60405180910390a150505050565b5f805f8381526020019081526020015f2090508060050154421115610662576040517f08c379a000000000000000000000000000000000000000000000000000000000815260040161065990611093565b60405180910390fd5b5f34116106a4576040517f08c379a000000000000000000000000000000000000000000000000000000000815260040161069b90611121565b60405180910390fd5b34816004015f8282546106b79190610d1d565b925050819055507fd1509d0d614d0c3e599471b10aa247cc85ce44879836c03502258b44cc12af028234336040516106f19392919061113f565b60405180910390a15050565b5f604051905090565b5f80fd5b5f80fd5b5f819050919050565b6107208161070e565b811461072a575f80fd5b50565b5f8135905061073b81610717565b92915050565b5f6020828403121561075657610755610706565b5b5f6107638482850161072d565b91505092915050565b6107758161070e565b82525050565b5f81519050919050565b5f82825260208201905092915050565b8281835e5f83830152505050565b5f601f19601f8301169050919050565b5f6107bd8261077b565b6107c78185610785565b93506107d7818560208601610795565b6107e0816107a3565b840191505092915050565b5f73ffffffffffffffffffffffffffffffffffffffff82169050919050565b5f610814826107eb565b9050919050565b6108248161080a565b82525050565b5f60e08201905061083d5f83018a61076c565b818103602083015261084f81896107b3565b9050818103604083015261086381886107b3565b9050610872606083018761076c565b61087f608083018661076c565b61088c60a083018561076c565b61089960c083018461081b565b98975050505050505050565b5f6020820190506108b85f83018461076c565b92915050565b5f80fd5b5f80fd5b7f4e487b71000000000000000000000000000000000000000000000000000000005f52604160045260245ffd5b6108fc826107a3565b810181811067ffffffffffffffff8211171561091b5761091a6108c6565b5b80604052505050565b5f61092d6106fd565b905061093982826108f3565b919050565b5f67ffffffffffffffff821115610958576109576108c6565b5b610961826107a3565b9050602081019050919050565b828183375f83830152505050565b5f61098e6109898461093e565b610924565b9050828152602081018484840111156109aa576109a96108c2565b5b6109b584828561096e565b509392505050565b5f82601f8301126109d1576109d06108be565b5b81356109e184826020860161097c565b91505092915050565b5f805f8060808587031215610a0257610a01610706565b5b5f85013567ffffffffffffffff811115610a1f57610a1e61070a565b5b610a2b878288016109bd565b945050602085013567ffffffffffffffff811115610a4c57610a4b61070a565b5b610a58878288016109bd565b9350506040610a698782880161072d565b9250506060610a7a8782880161072d565b91505092959194509250565b7f4e487b71000000000000000000000000000000000000000000000000000000005f52602260045260245ffd5b5f6002820490506001821680610aca57607f821691505b602082108103610add57610adc610a86565b5b50919050565b7f446561646c696e6520686173206e6f74207061737365642e00000000000000005f82015250565b5f610b17601883610785565b9150610b2282610ae3565b602082019050919050565b5f6020820190508181035f830152610b4481610b0b565b9050919050565b7f4f6e6c79207468652070726f6a656374206f776e65722063616e2077697468645f8201527f7261772066756e64732e00000000000000000000000000000000000000000000602082015250565b5f610ba5602a83610785565b9150610bb082610b4b565b604082019050919050565b5f6020820190508181035f830152610bd281610b99565b9050919050565b7f46756e64696e6720676f616c206e6f7420726561636865642e000000000000005f82015250565b5f610c0d601983610785565b9150610c1882610bd9565b602082019050919050565b5f6020820190508181035f830152610c3a81610c01565b9050919050565b5f604082019050610c545f83018561076c565b610c61602083018461076c565b9392505050565b7f4e487b71000000000000000000000000000000000000000000000000000000005f52601160045260245ffd5b5f610c9f8261070e565b91507fffffffffffffffffffffffffffffffffffffffffffffffffffffffffffffffff8203610cd157610cd0610c68565b5b600182019050919050565b5f610ce68261070e565b9150610cf18361070e565b9250828202610cff8161070e565b91508282048414831517610d1657610d15610c68565b5b5092915050565b5f610d278261070e565b9150610d328361070e565b9250828201905080821115610d4a57610d49610c68565b5b92915050565b5f819050815f5260205f209050919050565b5f6020601f8301049050919050565b5f82821b905092915050565b5f60088302610dac7fffffffffffffffffffffffffffffffffffffffffffffffffffffffffffffffff82610d71565b610db68683610d71565b95508019841693508086168417925050509392505050565b5f819050919050565b5f610df1610dec610de78461070e565b610dce565b61070e565b9050919050565b5f819050919050565b610e0a83610dd7565b610e1e610e1682610df8565b848454610d7d565b825550505050565b5f90565b610e32610e26565b610e3d818484610e01565b505050565b5b81811015610e6057610e555f82610e2a565b600181019050610e43565b5050565b601f821115610ea557610e7681610d50565b610e7f84610d62565b81016020851015610e8e578190505b610ea2610e9a85610d62565b830182610e42565b50505b505050565b5f82821c905092915050565b5f610ec55f1984600802610eaa565b1980831691505092915050565b5f610edd8383610eb6565b9150826002028217905092915050565b610ef68261077b565b67ffffffffffffffff811115610f0f57610f0e6108c6565b5b610f198254610ab3565b610f24828285610e64565b5f60209050601f831160018114610f55575f8415610f43578287015190505b610f4d8582610ed2565b865550610fb4565b601f198416610f6386610d50565b5f5b82811015610f8a57848901518255600182019150602085019450602081019050610f65565b86831015610fa75784890151610fa3601f891682610eb6565b8355505b6001600288020188555050505b505050505050565b5f610fc6826107eb565b9050919050565b610fd681610fbc565b82525050565b5f60c082019050610fef5f83018961076c565b818103602083015261100181886107b3565b9050818103604083015261101581876107b3565b9050611024606083018661076c565b611031608083018561076c565b61103e60a0830184610fcd565b979650505050505050565b7f446561646c696e6520686173207061737365642e0000000000000000000000005f82015250565b5f61107d601483610785565b915061108882611049565b602082019050919050565b5f6020820190508181035f8301526110aa81611071565b9050919050565b7f446f6e6174696f6e20616d6f756e74206d7573742062652067726561746572205f8201527f7468616e207a65726f2e00000000000000000000000000000000000000000000602082015250565b5f61110b602a83610785565b9150611116826110b1565b604082019050919050565b5f6020820190508181035f830152611138816110ff565b9050919050565b5f6060820190506111525f83018661076c565b61115f602083018561076c565b61116c6040830184610fcd565b94935050505056fea26469706673582212206e22f44e383f1a685d4bba9d044184e4751062ea5bd5778a6f7a40dbc5aee46b64736f6c634300081a0033",
					"opcodes": "PUSH1 0x80 PUSH1 0x40 MSTORE CALLVALUE DUP1 ISZERO PUSH1 0xE JUMPI PUSH0 DUP1 REVERT JUMPDEST POP PUSH2 0x11AA DUP1 PUSH2 0x1C PUSH0 CODECOPY PUSH0 RETURN INVALID PUSH1 0x80 PUSH1 0x40 MSTORE PUSH1 0x4 CALLDATASIZE LT PUSH2 0x49 JUMPI PUSH0 CALLDATALOAD PUSH1 0xE0 SHR DUP1 PUSH4 0x107046BD EQ PUSH2 0x4D JUMPI DUP1 PUSH4 0x155DD5EE EQ PUSH2 0x8F JUMPI DUP1 PUSH4 0x36FBAD26 EQ PUSH2 0xB7 JUMPI DUP1 PUSH4 0x94BA9709 EQ PUSH2 0xE1 JUMPI DUP1 PUSH4 0xF14FAF6F EQ PUSH2 0x109 JUMPI JUMPDEST PUSH0 DUP1 REVERT JUMPDEST CALLVALUE DUP1 ISZERO PUSH2 0x58 JUMPI PUSH0 DUP1 REVERT JUMPDEST POP PUSH2 0x73 PUSH1 0x4 DUP1 CALLDATASIZE SUB DUP2 ADD SWAP1 PUSH2 0x6E SWAP2 SWAP1 PUSH2 0x741 JUMP JUMPDEST PUSH2 0x125 JUMP JUMPDEST PUSH1 0x40 MLOAD PUSH2 0x86 SWAP8 SWAP7 SWAP6 SWAP5 SWAP4 SWAP3 SWAP2 SWAP1 PUSH2 0x82A JUMP JUMPDEST PUSH1 0x40 MLOAD DUP1 SWAP2 SUB SWAP1 RETURN JUMPDEST CALLVALUE DUP1 ISZERO PUSH2 0x9A JUMPI PUSH0 DUP1 REVERT JUMPDEST POP PUSH2 0xB5 PUSH1 0x4 DUP1 CALLDATASIZE SUB DUP2 ADD SWAP1 PUSH2 0xB0 SWAP2 SWAP1 PUSH2 0x741 JUMP JUMPDEST PUSH2 0x28D JUMP JUMPDEST STOP JUMPDEST CALLVALUE DUP1 ISZERO PUSH2 0xC2 JUMPI PUSH0 DUP1 REVERT JUMPDEST POP PUSH2 0xCB PUSH2 0x478 JUMP JUMPDEST PUSH1 0x40 MLOAD PUSH2 0xD8 SWAP2 SWAP1 PUSH2 0x8A5 JUMP JUMPDEST PUSH1 0x40 MLOAD DUP1 SWAP2 SUB SWAP1 RETURN JUMPDEST CALLVALUE DUP1 ISZERO PUSH2 0xEC JUMPI PUSH0 DUP1 REVERT JUMPDEST POP PUSH2 0x107 PUSH1 0x4 DUP1 CALLDATASIZE SUB DUP2 ADD SWAP1 PUSH2 0x102 SWAP2 SWAP1 PUSH2 0x9EA JUMP JUMPDEST PUSH2 0x47E JUMP JUMPDEST STOP JUMPDEST PUSH2 0x123 PUSH1 0x4 DUP1 CALLDATASIZE SUB DUP2 ADD SWAP1 PUSH2 0x11E SWAP2 SWAP1 PUSH2 0x741 JUMP JUMPDEST PUSH2 0x608 JUMP JUMPDEST STOP JUMPDEST PUSH0 PUSH1 0x20 MSTORE DUP1 PUSH0 MSTORE PUSH1 0x40 PUSH0 KECCAK256 PUSH0 SWAP2 POP SWAP1 POP DUP1 PUSH0 ADD SLOAD SWAP1 DUP1 PUSH1 0x1 ADD DUP1 SLOAD PUSH2 0x149 SWAP1 PUSH2 0xAB3 JUMP JUMPDEST DUP1 PUSH1 0x1F ADD PUSH1 0x20 DUP1 SWAP2 DIV MUL PUSH1 0x20 ADD PUSH1 0x40 MLOAD SWAP1 DUP2 ADD PUSH1 0x40 MSTORE DUP1 SWAP3 SWAP2 SWAP1 DUP2 DUP2 MSTORE PUSH1 0x20 ADD DUP3 DUP1 SLOAD PUSH2 0x175 SWAP1 PUSH2 0xAB3 JUMP JUMPDEST DUP1 ISZERO PUSH2 0x1C0 JUMPI DUP1 PUSH1 0x1F LT PUSH2 0x197 JUMPI PUSH2 0x100 DUP1 DUP4 SLOAD DIV MUL DUP4 MSTORE SWAP2 PUSH1 0x20 ADD SWAP2 PUSH2 0x1C0 JUMP JUMPDEST DUP3 ADD SWAP2 SWAP1 PUSH0 MSTORE PUSH1 0x20 PUSH0 KECCAK256 SWAP1 JUMPDEST DUP2 SLOAD DUP2 MSTORE SWAP1 PUSH1 0x1 ADD SWAP1 PUSH1 0x20 ADD DUP1 DUP4 GT PUSH2 0x1A3 JUMPI DUP3 SWAP1 SUB PUSH1 0x1F AND DUP3 ADD SWAP2 JUMPDEST POP POP POP POP POP SWAP1 DUP1 PUSH1 0x2 ADD DUP1 SLOAD PUSH2 0x1D5 SWAP1 PUSH2 0xAB3 JUMP JUMPDEST DUP1 PUSH1 0x1F ADD PUSH1 0x20 DUP1 SWAP2 DIV MUL PUSH1 0x20 ADD PUSH1 0x40 MLOAD SWAP1 DUP2 ADD PUSH1 0x40 MSTORE DUP1 SWAP3 SWAP2 SWAP1 DUP2 DUP2 MSTORE PUSH1 0x20 ADD DUP3 DUP1 SLOAD PUSH2 0x201 SWAP1 PUSH2 0xAB3 JUMP JUMPDEST DUP1 ISZERO PUSH2 0x24C JUMPI DUP1 PUSH1 0x1F LT PUSH2 0x223 JUMPI PUSH2 0x100 DUP1 DUP4 SLOAD DIV MUL DUP4 MSTORE SWAP2 PUSH1 0x20 ADD SWAP2 PUSH2 0x24C JUMP JUMPDEST DUP3 ADD SWAP2 SWAP1 PUSH0 MSTORE PUSH1 0x20 PUSH0 KECCAK256 SWAP1 JUMPDEST DUP2 SLOAD DUP2 MSTORE SWAP1 PUSH1 0x1 ADD SWAP1 PUSH1 0x20 ADD DUP1 DUP4 GT PUSH2 0x22F JUMPI DUP3 SWAP1 SUB PUSH1 0x1F AND DUP3 ADD SWAP2 JUMPDEST POP POP POP POP POP SWAP1 DUP1 PUSH1 0x3 ADD SLOAD SWAP1 DUP1 PUSH1 0x4 ADD SLOAD SWAP1 DUP1 PUSH1 0x5 ADD SLOAD SWAP1 DUP1 PUSH1 0x6 ADD PUSH0 SWAP1 SLOAD SWAP1 PUSH2 0x100 EXP SWAP1 DIV PUSH20 0xFFFFFFFFFFFFFFFFFFFFFFFFFFFFFFFFFFFFFFFF AND SWAP1 POP DUP8 JUMP JUMPDEST PUSH0 DUP1 PUSH0 DUP4 DUP2 MSTORE PUSH1 0x20 ADD SWAP1 DUP2 MSTORE PUSH1 0x20 ADD PUSH0 KECCAK256 SWAP1 POP DUP1 PUSH1 0x5 ADD SLOAD TIMESTAMP GT PUSH2 0x2E6 JUMPI PUSH1 0x40 MLOAD PUSH32 0x8C379A000000000000000000000000000000000000000000000000000000000 DUP2 MSTORE PUSH1 0x4 ADD PUSH2 0x2DD SWAP1 PUSH2 0xB2D JUMP JUMPDEST PUSH1 0x40 MLOAD DUP1 SWAP2 SUB SWAP1 REVERT JUMPDEST DUP1 PUSH1 0x6 ADD PUSH0 SWAP1 SLOAD SWAP1 PUSH2 0x100 EXP SWAP1 DIV PUSH20 0xFFFFFFFFFFFFFFFFFFFFFFFFFFFFFFFFFFFFFFFF AND PUSH20 0xFFFFFFFFFFFFFFFFFFFFFFFFFFFFFFFFFFFFFFFF AND CALLER PUSH20 0xFFFFFFFFFFFFFFFFFFFFFFFFFFFFFFFFFFFFFFFF AND EQ PUSH2 0x377 JUMPI PUSH1 0x40 MLOAD PUSH32 0x8C379A000000000000000000000000000000000000000000000000000000000 DUP2 MSTORE PUSH1 0x4 ADD PUSH2 0x36E SWAP1 PUSH2 0xBBB JUMP JUMPDEST PUSH1 0x40 MLOAD DUP1 SWAP2 SUB SWAP1 REVERT JUMPDEST DUP1 PUSH1 0x3 ADD SLOAD DUP2 PUSH1 0x4 ADD SLOAD LT ISZERO PUSH2 0x3C2 JUMPI PUSH1 0x40 MLOAD PUSH32 0x8C379A000000000000000000000000000000000000000000000000000000000 DUP2 MSTORE PUSH1 0x4 ADD PUSH2 0x3B9 SWAP1 PUSH2 0xC23 JUMP JUMPDEST PUSH1 0x40 MLOAD DUP1 SWAP2 SUB SWAP1 REVERT JUMPDEST PUSH0 DUP2 PUSH1 0x4 ADD SLOAD SWAP1 POP PUSH0 DUP3 PUSH1 0x4 ADD DUP2 SWAP1 SSTORE POP DUP2 PUSH1 0x6 ADD PUSH0 SWAP1 SLOAD SWAP1 PUSH2 0x100 EXP SWAP1 DIV PUSH20 0xFFFFFFFFFFFFFFFFFFFFFFFFFFFFFFFFFFFFFFFF AND PUSH20 0xFFFFFFFFFFFFFFFFFFFFFFFFFFFFFFFFFFFFFFFF AND PUSH2 0x8FC DUP3 SWAP1 DUP2 ISZERO MUL SWAP1 PUSH1 0x40 MLOAD PUSH0 PUSH1 0x40 MLOAD DUP1 DUP4 SUB DUP2 DUP6 DUP9 DUP9 CALL SWAP4 POP POP POP POP ISZERO DUP1 ISZERO PUSH2 0x439 JUMPI RETURNDATASIZE PUSH0 DUP1 RETURNDATACOPY RETURNDATASIZE PUSH0 REVERT JUMPDEST POP PUSH32 0xD66662C0DED9E58FD31D5E44944BCFD07FFC15E6927ECC1382E7941CB7BD24C4 DUP4 DUP3 PUSH1 0x40 MLOAD PUSH2 0x46B SWAP3 SWAP2 SWAP1 PUSH2 0xC41 JUMP JUMPDEST PUSH1 0x40 MLOAD DUP1 SWAP2 SUB SWAP1 LOG1 POP POP POP JUMP JUMPDEST PUSH1 0x1 SLOAD DUP2 JUMP JUMPDEST PUSH1 0x1 PUSH0 DUP2 SLOAD DUP1 SWAP3 SWAP2 SWAP1 PUSH2 0x490 SWAP1 PUSH2 0xC95 JUMP JUMPDEST SWAP2 SWAP1 POP SSTORE POP PUSH1 0x40 MLOAD DUP1 PUSH1 0xE0 ADD PUSH1 0x40 MSTORE DUP1 PUSH1 0x1 SLOAD DUP2 MSTORE PUSH1 0x20 ADD DUP6 DUP2 MSTORE PUSH1 0x20 ADD DUP5 DUP2 MSTORE PUSH1 0x20 ADD DUP4 DUP2 MSTORE PUSH1 0x20 ADD PUSH0 DUP2 MSTORE PUSH1 0x20 ADD PUSH3 0x15180 DUP4 PUSH2 0x4CF SWAP2 SWAP1 PUSH2 0xCDC JUMP JUMPDEST TIMESTAMP PUSH2 0x4DA SWAP2 SWAP1 PUSH2 0xD1D JUMP JUMPDEST DUP2 MSTORE PUSH1 0x20 ADD CALLER PUSH20 0xFFFFFFFFFFFFFFFFFFFFFFFFFFFFFFFFFFFFFFFF AND DUP2 MSTORE POP PUSH0 DUP1 PUSH1 0x1 SLOAD DUP2 MSTORE PUSH1 0x20 ADD SWAP1 DUP2 MSTORE PUSH1 0x20 ADD PUSH0 KECCAK256 PUSH0 DUP3 ADD MLOAD DUP2 PUSH0 ADD SSTORE PUSH1 0x20 DUP3 ADD MLOAD DUP2 PUSH1 0x1 ADD SWAP1 DUP2 PUSH2 0x528 SWAP2 SWAP1 PUSH2 0xEED JUMP JUMPDEST POP PUSH1 0x40 DUP3 ADD MLOAD DUP2 PUSH1 0x2 ADD SWAP1 DUP2 PUSH2 0x53E SWAP2 SWAP1 PUSH2 0xEED JUMP JUMPDEST POP PUSH1 0x60 DUP3 ADD MLOAD DUP2 PUSH1 0x3 ADD SSTORE PUSH1 0x80 DUP3 ADD MLOAD DUP2 PUSH1 0x4 ADD SSTORE PUSH1 0xA0 DUP3 ADD MLOAD DUP2 PUSH1 0x5 ADD SSTORE PUSH1 0xC0 DUP3 ADD MLOAD DUP2 PUSH1 0x6 ADD PUSH0 PUSH2 0x100 EXP DUP2 SLOAD DUP2 PUSH20 0xFFFFFFFFFFFFFFFFFFFFFFFFFFFFFFFFFFFFFFFF MUL NOT AND SWAP1 DUP4 PUSH20 0xFFFFFFFFFFFFFFFFFFFFFFFFFFFFFFFFFFFFFFFF AND MUL OR SWAP1 SSTORE POP SWAP1 POP POP PUSH32 0xDBE1C32E03D5A1F775A4DB60A0531D3D8610AAF0621374D9A265AD9F1F2B54F3 PUSH1 0x1 SLOAD DUP6 DUP6 DUP6 PUSH3 0x15180 DUP7 PUSH2 0x5DC SWAP2 SWAP1 PUSH2 0xCDC JUMP JUMPDEST TIMESTAMP PUSH2 0x5E7 SWAP2 SWAP1 PUSH2 0xD1D JUMP JUMPDEST CALLER PUSH1 0x40 MLOAD PUSH2 0x5FA SWAP7 SWAP6 SWAP5 SWAP4 SWAP3 SWAP2 SWAP1 PUSH2 0xFDC JUMP JUMPDEST PUSH1 0x40 MLOAD DUP1 SWAP2 SUB SWAP1 LOG1 POP POP POP POP JUMP JUMPDEST PUSH0 DUP1 PUSH0 DUP4 DUP2 MSTORE PUSH1 0x20 ADD SWAP1 DUP2 MSTORE PUSH1 0x20 ADD PUSH0 KECCAK256 SWAP1 POP DUP1 PUSH1 0x5 ADD SLOAD TIMESTAMP GT ISZERO PUSH2 0x662 JUMPI PUSH1 0x40 MLOAD PUSH32 0x8C379A000000000000000000000000000000000000000000000000000000000 DUP2 MSTORE PUSH1 0x4 ADD PUSH2 0x659 SWAP1 PUSH2 0x1093 JUMP JUMPDEST PUSH1 0x40 MLOAD DUP1 SWAP2 SUB SWAP1 REVERT JUMPDEST PUSH0 CALLVALUE GT PUSH2 0x6A4 JUMPI PUSH1 0x40 MLOAD PUSH32 0x8C379A000000000000000000000000000000000000000000000000000000000 DUP2 MSTORE PUSH1 0x4 ADD PUSH2 0x69B SWAP1 PUSH2 0x1121 JUMP JUMPDEST PUSH1 0x40 MLOAD DUP1 SWAP2 SUB SWAP1 REVERT JUMPDEST CALLVALUE DUP2 PUSH1 0x4 ADD PUSH0 DUP3 DUP3 SLOAD PUSH2 0x6B7 SWAP2 SWAP1 PUSH2 0xD1D JUMP JUMPDEST SWAP3 POP POP DUP2 SWAP1 SSTORE POP PUSH32 0xD1509D0D614D0C3E599471B10AA247CC85CE44879836C03502258B44CC12AF02 DUP3 CALLVALUE CALLER PUSH1 0x40 MLOAD PUSH2 0x6F1 SWAP4 SWAP3 SWAP2 SWAP1 PUSH2 0x113F JUMP JUMPDEST PUSH1 0x40 MLOAD DUP1 SWAP2 SUB SWAP1 LOG1 POP POP JUMP JUMPDEST PUSH0 PUSH1 0x40 MLOAD SWAP1 POP SWAP1 JUMP JUMPDEST PUSH0 DUP1 REVERT JUMPDEST PUSH0 DUP1 REVERT JUMPDEST PUSH0 DUP2 SWAP1 POP SWAP2 SWAP1 POP JUMP JUMPDEST PUSH2 0x720 DUP2 PUSH2 0x70E JUMP JUMPDEST DUP2 EQ PUSH2 0x72A JUMPI PUSH0 DUP1 REVERT JUMPDEST POP JUMP JUMPDEST PUSH0 DUP2 CALLDATALOAD SWAP1 POP PUSH2 0x73B DUP2 PUSH2 0x717 JUMP JUMPDEST SWAP3 SWAP2 POP POP JUMP JUMPDEST PUSH0 PUSH1 0x20 DUP3 DUP5 SUB SLT ISZERO PUSH2 0x756 JUMPI PUSH2 0x755 PUSH2 0x706 JUMP JUMPDEST JUMPDEST PUSH0 PUSH2 0x763 DUP5 DUP3 DUP6 ADD PUSH2 0x72D JUMP JUMPDEST SWAP2 POP POP SWAP3 SWAP2 POP POP JUMP JUMPDEST PUSH2 0x775 DUP2 PUSH2 0x70E JUMP JUMPDEST DUP3 MSTORE POP POP JUMP JUMPDEST PUSH0 DUP2 MLOAD SWAP1 POP SWAP2 SWAP1 POP JUMP JUMPDEST PUSH0 DUP3 DUP3 MSTORE PUSH1 0x20 DUP3 ADD SWAP1 POP SWAP3 SWAP2 POP POP JUMP JUMPDEST DUP3 DUP2 DUP4 MCOPY PUSH0 DUP4 DUP4 ADD MSTORE POP POP POP JUMP JUMPDEST PUSH0 PUSH1 0x1F NOT PUSH1 0x1F DUP4 ADD AND SWAP1 POP SWAP2 SWAP1 POP JUMP JUMPDEST PUSH0 PUSH2 0x7BD DUP3 PUSH2 0x77B JUMP JUMPDEST PUSH2 0x7C7 DUP2 DUP6 PUSH2 0x785 JUMP JUMPDEST SWAP4 POP PUSH2 0x7D7 DUP2 DUP6 PUSH1 0x20 DUP7 ADD PUSH2 0x795 JUMP JUMPDEST PUSH2 0x7E0 DUP2 PUSH2 0x7A3 JUMP JUMPDEST DUP5 ADD SWAP2 POP POP SWAP3 SWAP2 POP POP JUMP JUMPDEST PUSH0 PUSH20 0xFFFFFFFFFFFFFFFFFFFFFFFFFFFFFFFFFFFFFFFF DUP3 AND SWAP1 POP SWAP2 SWAP1 POP JUMP JUMPDEST PUSH0 PUSH2 0x814 DUP3 PUSH2 0x7EB JUMP JUMPDEST SWAP1 POP SWAP2 SWAP1 POP JUMP JUMPDEST PUSH2 0x824 DUP2 PUSH2 0x80A JUMP JUMPDEST DUP3 MSTORE POP POP JUMP JUMPDEST PUSH0 PUSH1 0xE0 DUP3 ADD SWAP1 POP PUSH2 0x83D PUSH0 DUP4 ADD DUP11 PUSH2 0x76C JUMP JUMPDEST DUP2 DUP2 SUB PUSH1 0x20 DUP4 ADD MSTORE PUSH2 0x84F DUP2 DUP10 PUSH2 0x7B3 JUMP JUMPDEST SWAP1 POP DUP2 DUP2 SUB PUSH1 0x40 DUP4 ADD MSTORE PUSH2 0x863 DUP2 DUP9 PUSH2 0x7B3 JUMP JUMPDEST SWAP1 POP PUSH2 0x872 PUSH1 0x60 DUP4 ADD DUP8 PUSH2 0x76C JUMP JUMPDEST PUSH2 0x87F PUSH1 0x80 DUP4 ADD DUP7 PUSH2 0x76C JUMP JUMPDEST PUSH2 0x88C PUSH1 0xA0 DUP4 ADD DUP6 PUSH2 0x76C JUMP JUMPDEST PUSH2 0x899 PUSH1 0xC0 DUP4 ADD DUP5 PUSH2 0x81B JUMP JUMPDEST SWAP9 SWAP8 POP POP POP POP POP POP POP POP JUMP JUMPDEST PUSH0 PUSH1 0x20 DUP3 ADD SWAP1 POP PUSH2 0x8B8 PUSH0 DUP4 ADD DUP5 PUSH2 0x76C JUMP JUMPDEST SWAP3 SWAP2 POP POP JUMP JUMPDEST PUSH0 DUP1 REVERT JUMPDEST PUSH0 DUP1 REVERT JUMPDEST PUSH32 0x4E487B7100000000000000000000000000000000000000000000000000000000 PUSH0 MSTORE PUSH1 0x41 PUSH1 0x4 MSTORE PUSH1 0x24 PUSH0 REVERT JUMPDEST PUSH2 0x8FC DUP3 PUSH2 0x7A3 JUMP JUMPDEST DUP2 ADD DUP2 DUP2 LT PUSH8 0xFFFFFFFFFFFFFFFF DUP3 GT OR ISZERO PUSH2 0x91B JUMPI PUSH2 0x91A PUSH2 0x8C6 JUMP JUMPDEST JUMPDEST DUP1 PUSH1 0x40 MSTORE POP POP POP JUMP JUMPDEST PUSH0 PUSH2 0x92D PUSH2 0x6FD JUMP JUMPDEST SWAP1 POP PUSH2 0x939 DUP3 DUP3 PUSH2 0x8F3 JUMP JUMPDEST SWAP2 SWAP1 POP JUMP JUMPDEST PUSH0 PUSH8 0xFFFFFFFFFFFFFFFF DUP3 GT ISZERO PUSH2 0x958 JUMPI PUSH2 0x957 PUSH2 0x8C6 JUMP JUMPDEST JUMPDEST PUSH2 0x961 DUP3 PUSH2 0x7A3 JUMP JUMPDEST SWAP1 POP PUSH1 0x20 DUP2 ADD SWAP1 POP SWAP2 SWAP1 POP JUMP JUMPDEST DUP3 DUP2 DUP4 CALLDATACOPY PUSH0 DUP4 DUP4 ADD MSTORE POP POP POP JUMP JUMPDEST PUSH0 PUSH2 0x98E PUSH2 0x989 DUP5 PUSH2 0x93E JUMP JUMPDEST PUSH2 0x924 JUMP JUMPDEST SWAP1 POP DUP3 DUP2 MSTORE PUSH1 0x20 DUP2 ADD DUP5 DUP5 DUP5 ADD GT ISZERO PUSH2 0x9AA JUMPI PUSH2 0x9A9 PUSH2 0x8C2 JUMP JUMPDEST JUMPDEST PUSH2 0x9B5 DUP5 DUP3 DUP6 PUSH2 0x96E JUMP JUMPDEST POP SWAP4 SWAP3 POP POP POP JUMP JUMPDEST PUSH0 DUP3 PUSH1 0x1F DUP4 ADD SLT PUSH2 0x9D1 JUMPI PUSH2 0x9D0 PUSH2 0x8BE JUMP JUMPDEST JUMPDEST DUP2 CALLDATALOAD PUSH2 0x9E1 DUP5 DUP3 PUSH1 0x20 DUP7 ADD PUSH2 0x97C JUMP JUMPDEST SWAP2 POP POP SWAP3 SWAP2 POP POP JUMP JUMPDEST PUSH0 DUP1 PUSH0 DUP1 PUSH1 0x80 DUP6 DUP8 SUB SLT ISZERO PUSH2 0xA02 JUMPI PUSH2 0xA01 PUSH2 0x706 JUMP JUMPDEST JUMPDEST PUSH0 DUP6 ADD CALLDATALOAD PUSH8 0xFFFFFFFFFFFFFFFF DUP2 GT ISZERO PUSH2 0xA1F JUMPI PUSH2 0xA1E PUSH2 0x70A JUMP JUMPDEST JUMPDEST PUSH2 0xA2B DUP8 DUP3 DUP9 ADD PUSH2 0x9BD JUMP JUMPDEST SWAP5 POP POP PUSH1 0x20 DUP6 ADD CALLDATALOAD PUSH8 0xFFFFFFFFFFFFFFFF DUP2 GT ISZERO PUSH2 0xA4C JUMPI PUSH2 0xA4B PUSH2 0x70A JUMP JUMPDEST JUMPDEST PUSH2 0xA58 DUP8 DUP3 DUP9 ADD PUSH2 0x9BD JUMP JUMPDEST SWAP4 POP POP PUSH1 0x40 PUSH2 0xA69 DUP8 DUP3 DUP9 ADD PUSH2 0x72D JUMP JUMPDEST SWAP3 POP POP PUSH1 0x60 PUSH2 0xA7A DUP8 DUP3 DUP9 ADD PUSH2 0x72D JUMP JUMPDEST SWAP2 POP POP SWAP3 SWAP6 SWAP2 SWAP5 POP SWAP3 POP JUMP JUMPDEST PUSH32 0x4E487B7100000000000000000000000000000000000000000000000000000000 PUSH0 MSTORE PUSH1 0x22 PUSH1 0x4 MSTORE PUSH1 0x24 PUSH0 REVERT JUMPDEST PUSH0 PUSH1 0x2 DUP3 DIV SWAP1 POP PUSH1 0x1 DUP3 AND DUP1 PUSH2 0xACA JUMPI PUSH1 0x7F DUP3 AND SWAP2 POP JUMPDEST PUSH1 0x20 DUP3 LT DUP2 SUB PUSH2 0xADD JUMPI PUSH2 0xADC PUSH2 0xA86 JUMP JUMPDEST JUMPDEST POP SWAP2 SWAP1 POP JUMP JUMPDEST PUSH32 0x446561646C696E6520686173206E6F74207061737365642E0000000000000000 PUSH0 DUP3 ADD MSTORE POP JUMP JUMPDEST PUSH0 PUSH2 0xB17 PUSH1 0x18 DUP4 PUSH2 0x785 JUMP JUMPDEST SWAP2 POP PUSH2 0xB22 DUP3 PUSH2 0xAE3 JUMP JUMPDEST PUSH1 0x20 DUP3 ADD SWAP1 POP SWAP2 SWAP1 POP JUMP JUMPDEST PUSH0 PUSH1 0x20 DUP3 ADD SWAP1 POP DUP2 DUP2 SUB PUSH0 DUP4 ADD MSTORE PUSH2 0xB44 DUP2 PUSH2 0xB0B JUMP JUMPDEST SWAP1 POP SWAP2 SWAP1 POP JUMP JUMPDEST PUSH32 0x4F6E6C79207468652070726F6A656374206F776E65722063616E207769746864 PUSH0 DUP3 ADD MSTORE PUSH32 0x7261772066756E64732E00000000000000000000000000000000000000000000 PUSH1 0x20 DUP3 ADD MSTORE POP JUMP JUMPDEST PUSH0 PUSH2 0xBA5 PUSH1 0x2A DUP4 PUSH2 0x785 JUMP JUMPDEST SWAP2 POP PUSH2 0xBB0 DUP3 PUSH2 0xB4B JUMP JUMPDEST PUSH1 0x40 DUP3 ADD SWAP1 POP SWAP2 SWAP1 POP JUMP JUMPDEST PUSH0 PUSH1 0x20 DUP3 ADD SWAP1 POP DUP2 DUP2 SUB PUSH0 DUP4 ADD MSTORE PUSH2 0xBD2 DUP2 PUSH2 0xB99 JUMP JUMPDEST SWAP1 POP SWAP2 SWAP1 POP JUMP JUMPDEST PUSH32 0x46756E64696E6720676F616C206E6F7420726561636865642E00000000000000 PUSH0 DUP3 ADD MSTORE POP JUMP JUMPDEST PUSH0 PUSH2 0xC0D PUSH1 0x19 DUP4 PUSH2 0x785 JUMP JUMPDEST SWAP2 POP PUSH2 0xC18 DUP3 PUSH2 0xBD9 JUMP JUMPDEST PUSH1 0x20 DUP3 ADD SWAP1 POP SWAP2 SWAP1 POP JUMP JUMPDEST PUSH0 PUSH1 0x20 DUP3 ADD SWAP1 POP DUP2 DUP2 SUB PUSH0 DUP4 ADD MSTORE PUSH2 0xC3A DUP2 PUSH2 0xC01 JUMP JUMPDEST SWAP1 POP SWAP2 SWAP1 POP JUMP JUMPDEST PUSH0 PUSH1 0x40 DUP3 ADD SWAP1 POP PUSH2 0xC54 PUSH0 DUP4 ADD DUP6 PUSH2 0x76C JUMP JUMPDEST PUSH2 0xC61 PUSH1 0x20 DUP4 ADD DUP5 PUSH2 0x76C JUMP JUMPDEST SWAP4 SWAP3 POP POP POP JUMP JUMPDEST PUSH32 0x4E487B7100000000000000000000000000000000000000000000000000000000 PUSH0 MSTORE PUSH1 0x11 PUSH1 0x4 MSTORE PUSH1 0x24 PUSH0 REVERT JUMPDEST PUSH0 PUSH2 0xC9F DUP3 PUSH2 0x70E JUMP JUMPDEST SWAP2 POP PUSH32 0xFFFFFFFFFFFFFFFFFFFFFFFFFFFFFFFFFFFFFFFFFFFFFFFFFFFFFFFFFFFFFFFF DUP3 SUB PUSH2 0xCD1 JUMPI PUSH2 0xCD0 PUSH2 0xC68 JUMP JUMPDEST JUMPDEST PUSH1 0x1 DUP3 ADD SWAP1 POP SWAP2 SWAP1 POP JUMP JUMPDEST PUSH0 PUSH2 0xCE6 DUP3 PUSH2 0x70E JUMP JUMPDEST SWAP2 POP PUSH2 0xCF1 DUP4 PUSH2 0x70E JUMP JUMPDEST SWAP3 POP DUP3 DUP3 MUL PUSH2 0xCFF DUP2 PUSH2 0x70E JUMP JUMPDEST SWAP2 POP DUP3 DUP3 DIV DUP5 EQ DUP4 ISZERO OR PUSH2 0xD16 JUMPI PUSH2 0xD15 PUSH2 0xC68 JUMP JUMPDEST JUMPDEST POP SWAP3 SWAP2 POP POP JUMP JUMPDEST PUSH0 PUSH2 0xD27 DUP3 PUSH2 0x70E JUMP JUMPDEST SWAP2 POP PUSH2 0xD32 DUP4 PUSH2 0x70E JUMP JUMPDEST SWAP3 POP DUP3 DUP3 ADD SWAP1 POP DUP1 DUP3 GT ISZERO PUSH2 0xD4A JUMPI PUSH2 0xD49 PUSH2 0xC68 JUMP JUMPDEST JUMPDEST SWAP3 SWAP2 POP POP JUMP JUMPDEST PUSH0 DUP2 SWAP1 POP DUP2 PUSH0 MSTORE PUSH1 0x20 PUSH0 KECCAK256 SWAP1 POP SWAP2 SWAP1 POP JUMP JUMPDEST PUSH0 PUSH1 0x20 PUSH1 0x1F DUP4 ADD DIV SWAP1 POP SWAP2 SWAP1 POP JUMP JUMPDEST PUSH0 DUP3 DUP3 SHL SWAP1 POP SWAP3 SWAP2 POP POP JUMP JUMPDEST PUSH0 PUSH1 0x8 DUP4 MUL PUSH2 0xDAC PUSH32 0xFFFFFFFFFFFFFFFFFFFFFFFFFFFFFFFFFFFFFFFFFFFFFFFFFFFFFFFFFFFFFFFF DUP3 PUSH2 0xD71 JUMP JUMPDEST PUSH2 0xDB6 DUP7 DUP4 PUSH2 0xD71 JUMP JUMPDEST SWAP6 POP DUP1 NOT DUP5 AND SWAP4 POP DUP1 DUP7 AND DUP5 OR SWAP3 POP POP POP SWAP4 SWAP3 POP POP POP JUMP JUMPDEST PUSH0 DUP2 SWAP1 POP SWAP2 SWAP1 POP JUMP JUMPDEST PUSH0 PUSH2 0xDF1 PUSH2 0xDEC PUSH2 0xDE7 DUP5 PUSH2 0x70E JUMP JUMPDEST PUSH2 0xDCE JUMP JUMPDEST PUSH2 0x70E JUMP JUMPDEST SWAP1 POP SWAP2 SWAP1 POP JUMP JUMPDEST PUSH0 DUP2 SWAP1 POP SWAP2 SWAP1 POP JUMP JUMPDEST PUSH2 0xE0A DUP4 PUSH2 0xDD7 JUMP JUMPDEST PUSH2 0xE1E PUSH2 0xE16 DUP3 PUSH2 0xDF8 JUMP JUMPDEST DUP5 DUP5 SLOAD PUSH2 0xD7D JUMP JUMPDEST DUP3 SSTORE POP POP POP POP JUMP JUMPDEST PUSH0 SWAP1 JUMP JUMPDEST PUSH2 0xE32 PUSH2 0xE26 JUMP JUMPDEST PUSH2 0xE3D DUP2 DUP5 DUP5 PUSH2 0xE01 JUMP JUMPDEST POP POP POP JUMP JUMPDEST JUMPDEST DUP2 DUP2 LT ISZERO PUSH2 0xE60 JUMPI PUSH2 0xE55 PUSH0 DUP3 PUSH2 0xE2A JUMP JUMPDEST PUSH1 0x1 DUP2 ADD SWAP1 POP PUSH2 0xE43 JUMP JUMPDEST POP POP JUMP JUMPDEST PUSH1 0x1F DUP3 GT ISZERO PUSH2 0xEA5 JUMPI PUSH2 0xE76 DUP2 PUSH2 0xD50 JUMP JUMPDEST PUSH2 0xE7F DUP5 PUSH2 0xD62 JUMP JUMPDEST DUP2 ADD PUSH1 0x20 DUP6 LT ISZERO PUSH2 0xE8E JUMPI DUP2 SWAP1 POP JUMPDEST PUSH2 0xEA2 PUSH2 0xE9A DUP6 PUSH2 0xD62 JUMP JUMPDEST DUP4 ADD DUP3 PUSH2 0xE42 JUMP JUMPDEST POP POP JUMPDEST POP POP POP JUMP JUMPDEST PUSH0 DUP3 DUP3 SHR SWAP1 POP SWAP3 SWAP2 POP POP JUMP JUMPDEST PUSH0 PUSH2 0xEC5 PUSH0 NOT DUP5 PUSH1 0x8 MUL PUSH2 0xEAA JUMP JUMPDEST NOT DUP1 DUP4 AND SWAP2 POP POP SWAP3 SWAP2 POP POP JUMP JUMPDEST PUSH0 PUSH2 0xEDD DUP4 DUP4 PUSH2 0xEB6 JUMP JUMPDEST SWAP2 POP DUP3 PUSH1 0x2 MUL DUP3 OR SWAP1 POP SWAP3 SWAP2 POP POP JUMP JUMPDEST PUSH2 0xEF6 DUP3 PUSH2 0x77B JUMP JUMPDEST PUSH8 0xFFFFFFFFFFFFFFFF DUP2 GT ISZERO PUSH2 0xF0F JUMPI PUSH2 0xF0E PUSH2 0x8C6 JUMP JUMPDEST JUMPDEST PUSH2 0xF19 DUP3 SLOAD PUSH2 0xAB3 JUMP JUMPDEST PUSH2 0xF24 DUP3 DUP3 DUP6 PUSH2 0xE64 JUMP JUMPDEST PUSH0 PUSH1 0x20 SWAP1 POP PUSH1 0x1F DUP4 GT PUSH1 0x1 DUP2 EQ PUSH2 0xF55 JUMPI PUSH0 DUP5 ISZERO PUSH2 0xF43 JUMPI DUP3 DUP8 ADD MLOAD SWAP1 POP JUMPDEST PUSH2 0xF4D DUP6 DUP3 PUSH2 0xED2 JUMP JUMPDEST DUP7 SSTORE POP PUSH2 0xFB4 JUMP JUMPDEST PUSH1 0x1F NOT DUP5 AND PUSH2 0xF63 DUP7 PUSH2 0xD50 JUMP JUMPDEST PUSH0 JUMPDEST DUP3 DUP2 LT ISZERO PUSH2 0xF8A JUMPI DUP5 DUP10 ADD MLOAD DUP3 SSTORE PUSH1 0x1 DUP3 ADD SWAP2 POP PUSH1 0x20 DUP6 ADD SWAP5 POP PUSH1 0x20 DUP2 ADD SWAP1 POP PUSH2 0xF65 JUMP JUMPDEST DUP7 DUP4 LT ISZERO PUSH2 0xFA7 JUMPI DUP5 DUP10 ADD MLOAD PUSH2 0xFA3 PUSH1 0x1F DUP10 AND DUP3 PUSH2 0xEB6 JUMP JUMPDEST DUP4 SSTORE POP JUMPDEST PUSH1 0x1 PUSH1 0x2 DUP9 MUL ADD DUP9 SSTORE POP POP POP JUMPDEST POP POP POP POP POP POP JUMP JUMPDEST PUSH0 PUSH2 0xFC6 DUP3 PUSH2 0x7EB JUMP JUMPDEST SWAP1 POP SWAP2 SWAP1 POP JUMP JUMPDEST PUSH2 0xFD6 DUP2 PUSH2 0xFBC JUMP JUMPDEST DUP3 MSTORE POP POP JUMP JUMPDEST PUSH0 PUSH1 0xC0 DUP3 ADD SWAP1 POP PUSH2 0xFEF PUSH0 DUP4 ADD DUP10 PUSH2 0x76C JUMP JUMPDEST DUP2 DUP2 SUB PUSH1 0x20 DUP4 ADD MSTORE PUSH2 0x1001 DUP2 DUP9 PUSH2 0x7B3 JUMP JUMPDEST SWAP1 POP DUP2 DUP2 SUB PUSH1 0x40 DUP4 ADD MSTORE PUSH2 0x1015 DUP2 DUP8 PUSH2 0x7B3 JUMP JUMPDEST SWAP1 POP PUSH2 0x1024 PUSH1 0x60 DUP4 ADD DUP7 PUSH2 0x76C JUMP JUMPDEST PUSH2 0x1031 PUSH1 0x80 DUP4 ADD DUP6 PUSH2 0x76C JUMP JUMPDEST PUSH2 0x103E PUSH1 0xA0 DUP4 ADD DUP5 PUSH2 0xFCD JUMP JUMPDEST SWAP8 SWAP7 POP POP POP POP POP POP POP JUMP JUMPDEST PUSH32 0x446561646C696E6520686173207061737365642E000000000000000000000000 PUSH0 DUP3 ADD MSTORE POP JUMP JUMPDEST PUSH0 PUSH2 0x107D PUSH1 0x14 DUP4 PUSH2 0x785 JUMP JUMPDEST SWAP2 POP PUSH2 0x1088 DUP3 PUSH2 0x1049 JUMP JUMPDEST PUSH1 0x20 DUP3 ADD SWAP1 POP SWAP2 SWAP1 POP JUMP JUMPDEST PUSH0 PUSH1 0x20 DUP3 ADD SWAP1 POP DUP2 DUP2 SUB PUSH0 DUP4 ADD MSTORE PUSH2 0x10AA DUP2 PUSH2 0x1071 JUMP JUMPDEST SWAP1 POP SWAP2 SWAP1 POP JUMP JUMPDEST PUSH32 0x446F6E6174696F6E20616D6F756E74206D757374206265206772656174657220 PUSH0 DUP3 ADD MSTORE PUSH32 0x7468616E207A65726F2E00000000000000000000000000000000000000000000 PUSH1 0x20 DUP3 ADD MSTORE POP JUMP JUMPDEST PUSH0 PUSH2 0x110B PUSH1 0x2A DUP4 PUSH2 0x785 JUMP JUMPDEST SWAP2 POP PUSH2 0x1116 DUP3 PUSH2 0x10B1 JUMP JUMPDEST PUSH1 0x40 DUP3 ADD SWAP1 POP SWAP2 SWAP1 POP JUMP JUMPDEST PUSH0 PUSH1 0x20 DUP3 ADD SWAP1 POP DUP2 DUP2 SUB PUSH0 DUP4 ADD MSTORE PUSH2 0x1138 DUP2 PUSH2 0x10FF JUMP JUMPDEST SWAP1 POP SWAP2 SWAP1 POP JUMP JUMPDEST PUSH0 PUSH1 0x60 DUP3 ADD SWAP1 POP PUSH2 0x1152 PUSH0 DUP4 ADD DUP7 PUSH2 0x76C JUMP JUMPDEST PUSH2 0x115F PUSH1 0x20 DUP4 ADD DUP6 PUSH2 0x76C JUMP JUMPDEST PUSH2 0x116C PUSH1 0x40 DUP4 ADD DUP5 PUSH2 0xFCD JUMP JUMPDEST SWAP5 SWAP4 POP POP POP POP JUMP INVALID LOG2 PUSH5 0x6970667358 0x22 SLT KECCAK256 PUSH15 0x22F44E383F1A685D4BBA9D044184E4 PUSH22 0x1062EA5BD5778A6F7A40DBC5AEE46B64736F6C634300 ADDMOD BYTE STOP CALLER "
				},
				"gasEstimates": {
					"creation": {
						"codeDepositCost": "904400",
						"executionCost": "940",
						"totalCost": "905340"
					},
					"external": {
						"createProject(string,string,uint256,uint256)": "infinite",
						"donate(uint256)": "infinite",
						"projectCount()": "2447",
						"projects(uint256)": "infinite",
						"withdrawFunds(uint256)": "infinite"
					}
				},
				"methodIdentifiers": {
					"createProject(string,string,uint256,uint256)": "94ba9709",
					"donate(uint256)": "f14faf6f",
					"projectCount()": "36fbad26",
					"projects(uint256)": "107046bd",
					"withdrawFunds(uint256)": "155dd5ee"
				}
			},
			"storageLayout": {
				"storage": [
					{
						"astId": 21,
						"contract": "contracts/Crowdfunding.sol:Crowdfunding",
						"label": "projects",
						"offset": 0,
						"slot": "0",
						"type": "t_mapping(t_uint256,t_struct(Project)16_storage)"
					},
					{
						"astId": 23,
						"contract": "contracts/Crowdfunding.sol:Crowdfunding",
						"label": "projectCount",
						"offset": 0,
						"slot": "1",
						"type": "t_uint256"
					}
				],
				"types": {
					"t_address_payable": {
						"encoding": "inplace",
						"label": "address payable",
						"numberOfBytes": "20"
					},
					"t_mapping(t_uint256,t_struct(Project)16_storage)": {
						"encoding": "mapping",
						"key": "t_uint256",
						"label": "mapping(uint256 => struct Crowdfunding.Project)",
						"numberOfBytes": "32",
						"value": "t_struct(Project)16_storage"
					},
					"t_string_storage": {
						"encoding": "bytes",
						"label": "string",
						"numberOfBytes": "32"
					},
					"t_struct(Project)16_storage": {
						"encoding": "inplace",
						"label": "struct Crowdfunding.Project",
						"members": [
							{
								"astId": 3,
								"contract": "contracts/Crowdfunding.sol:Crowdfunding",
								"label": "id",
								"offset": 0,
								"slot": "0",
								"type": "t_uint256"
							},
							{
								"astId": 5,
								"contract": "contracts/Crowdfunding.sol:Crowdfunding",
								"label": "name",
								"offset": 0,
								"slot": "1",
								"type": "t_string_storage"
							},
							{
								"astId": 7,
								"contract": "contracts/Crowdfunding.sol:Crowdfunding",
								"label": "description",
								"offset": 0,
								"slot": "2",
								"type": "t_string_storage"
							},
							{
								"astId": 9,
								"contract": "contracts/Crowdfunding.sol:Crowdfunding",
								"label": "targetAmount",
								"offset": 0,
								"slot": "3",
								"type": "t_uint256"
							},
							{
								"astId": 11,
								"contract": "contracts/Crowdfunding.sol:Crowdfunding",
								"label": "currentAmount",
								"offset": 0,
								"slot": "4",
								"type": "t_uint256"
							},
							{
								"astId": 13,
								"contract": "contracts/Crowdfunding.sol:Crowdfunding",
								"label": "deadline",
								"offset": 0,
								"slot": "5",
								"type": "t_uint256"
							},
							{
								"astId": 15,
								"contract": "contracts/Crowdfunding.sol:Crowdfunding",
								"label": "owner",
								"offset": 0,
								"slot": "6",
								"type": "t_address_payable"
							}
						],
						"numberOfBytes": "224"
					},
					"t_uint256": {
						"encoding": "inplace",
						"label": "uint256",
						"numberOfBytes": "32"
					}
				}
			},
			"userdoc": {
				"kind": "user",
				"methods": {},
				"version": 1
			}
		}
	}
}