{
  "contractName": "Crowdfunding",
  "abi": [
    {
      "anonymous": false,
      "inputs": [
        {
          "indexed": false,
          "internalType": "uint256",
          "name": "projectId",
          "type": "uint256"
        },
        {
          "indexed": false,
          "internalType": "uint256",
          "name": "amount",
          "type": "uint256"
        },
        {
          "indexed": false,
          "internalType": "address",
          "name": "donor",
          "type": "address"
        }
      ],
      "name": "DonationReceived",
      "type": "event"
    },
    {
      "anonymous": false,
      "inputs": [
        {
          "indexed": false,
          "internalType": "uint256",
          "name": "projectId",
          "type": "uint256"
        },
        {
          "indexed": false,
          "internalType": "uint256",
          "name": "amount",
          "type": "uint256"
        }
      ],
      "name": "FundsWithdrawn",
      "type": "event"
    },
    {
      "anonymous": false,
      "inputs": [
        {
          "indexed": false,
          "internalType": "uint256",
          "name": "id",
          "type": "uint256"
        },
        {
          "indexed": false,
          "internalType": "string",
          "name": "name",
          "type": "string"
        },
        {
          "indexed": false,
          "internalType": "string",
          "name": "description",
          "type": "string"
        },
        {
          "indexed": false,
          "internalType": "uint256",
          "name": "targetAmount",
          "type": "uint256"
        },
        {
          "indexed": false,
          "internalType": "uint256",
          "name": "deadline",
          "type": "uint256"
        },
        {
          "indexed": false,
          "internalType": "address",
          "name": "owner",
          "type": "address"
        }
      ],
      "name": "ProjectCreated",
      "type": "event"
    },
    {
      "inputs": [],
      "name": "projectCount",
      "outputs": [
        {
          "internalType": "uint256",
          "name": "",
          "type": "uint256"
        }
      ],
      "stateMutability": "view",
      "type": "function",
      "constant": true
    },
    {
      "inputs": [
        {
          "internalType": "uint256",
          "name": "",
          "type": "uint256"
        }
      ],
      "name": "projects",
      "outputs": [
        {
          "internalType": "uint256",
          "name": "id",
          "type": "uint256"
        },
        {
          "internalType": "string",
          "name": "name",
          "type": "string"
        },
        {
          "internalType": "string",
          "name": "description",
          "type": "string"
        },
        {
          "internalType": "uint256",
          "name": "targetAmount",
          "type": "uint256"
        },
        {
          "internalType": "uint256",
          "name": "currentAmount",
          "type": "uint256"
        },
        {
          "internalType": "uint256",
          "name": "deadline",
          "type": "uint256"
        },
        {
          "internalType": "address payable",
          "name": "owner",
          "type": "address"
        }
      ],
      "stateMutability": "view",
      "type": "function",
      "constant": true
    },
    {
      "inputs": [
        {
          "internalType": "string",
          "name": "_name",
          "type": "string"
        },
        {
          "internalType": "string",
          "name": "_description",
          "type": "string"
        },
        {
          "internalType": "uint256",
          "name": "_targetAmount",
          "type": "uint256"
        },
        {
          "internalType": "uint256",
          "name": "_durationInDays",
          "type": "uint256"
        }
      ],
      "name": "createProject",
      "outputs": [],
      "stateMutability": "nonpayable",
      "type": "function"
    },
    {
      "inputs": [
        {
          "internalType": "uint256",
          "name": "_projectId",
          "type": "uint256"
        }
      ],
      "name": "donate",
      "outputs": [],
      "stateMutability": "payable",
      "type": "function",
      "payable": true
    },
    {
      "inputs": [
        {
          "internalType": "uint256",
          "name": "_projectId",
          "type": "uint256"
        }
      ],
      "name": "withdrawFunds",
      "outputs": [],
      "stateMutability": "nonpayable",
      "type": "function"
    }
  ],
  "bytecode": "0x608060405234801561001057600080fd5b50611029806100206000396000f3fe60806040526004361061004a5760003560e01c8063107046bd1461004f578063155dd5ee1461009257806336fbad26146100bb57806394ba9709146100e6578063f14faf6f1461010f575b600080fd5b34801561005b57600080fd5b50610076600480360381019061007191906108e4565b61012b565b6040516100899796959493929190610c29565b60405180910390f35b34801561009e57600080fd5b506100b960048036038101906100b491906108e4565b61029d565b005b3480156100c757600080fd5b506100d0610492565b6040516100dd9190610b9f565b60405180910390f35b3480156100f257600080fd5b5061010d60048036038101906101089190610851565b610498565b005b610129600480360381019061012491906108e4565b610637565b005b600060205280600052604060002060009150905080600001549080600101805461015490610ec3565b80601f016020809104026020016040519081016040528092919081815260200182805461018090610ec3565b80156101cd5780601f106101a2576101008083540402835291602001916101cd565b820191906000526020600020905b8154815290600101906020018083116101b057829003601f168201915b5050505050908060020180546101e290610ec3565b80601f016020809104026020016040519081016040528092919081815260200182805461020e90610ec3565b801561025b5780601f106102305761010080835404028352916020019161025b565b820191906000526020600020905b81548152906001019060200180831161023e57829003601f168201915b5050505050908060030154908060040154908060050154908060060160009054906101000a900473ffffffffffffffffffffffffffffffffffffffff16905087565b60008060008381526020019081526020016000209050806005015442116102f9576040517f08c379a00000000000000000000000000000000000000000000000000000000081526004016102f090610b3f565b60405180910390fd5b8060060160009054906101000a900473ffffffffffffffffffffffffffffffffffffffff1673ffffffffffffffffffffffffffffffffffffffff163373ffffffffffffffffffffffffffffffffffffffff161461038b576040517f08c379a000000000000000000000000000000000000000000000000000000000815260040161038290610b7f565b60405180910390fd5b8060030154816004015410156103d6576040517f08c379a00000000000000000000000000000000000000000000000000000000081526004016103cd90610b1f565b60405180910390fd5b600081600401549050600082600401819055508160060160009054906101000a900473ffffffffffffffffffffffffffffffffffffffff1673ffffffffffffffffffffffffffffffffffffffff166108fc829081150290604051600060405180830381858888f19350505050158015610453573d6000803e3d6000fd5b507fd66662c0ded9e58fd31d5e44944bcfd07ffc15e6927ecc1382e7941cb7bd24c48382604051610485929190610ca6565b60405180910390a1505050565b60015481565b600160008154809291906104ab90610ef5565b91905055506040518060e0016040528060015481526020018581526020018481526020018381526020016000815260200162015180836104eb9190610dd9565b426104f69190610d83565b81526020013373ffffffffffffffffffffffffffffffffffffffff16815250600080600154815260200190815260200160002060008201518160000155602082015181600101908051906020019061054f929190610731565b50604082015181600201908051906020019061056c929190610731565b50606082015181600301556080820151816004015560a0820151816005015560c08201518160060160006101000a81548173ffffffffffffffffffffffffffffffffffffffff021916908373ffffffffffffffffffffffffffffffffffffffff1602179055509050507fdbe1c32e03d5a1f775a4db60a0531d3d8610aaf0621374d9a265ad9f1f2b54f3600154858585620151808661060b9190610dd9565b426106169190610d83565b3360405161062996959493929190610bba565b60405180910390a150505050565b600080600083815260200190815260200160002090508060050154421115610694576040517f08c379a000000000000000000000000000000000000000000000000000000000815260040161068b90610b5f565b60405180910390fd5b600034116106d7576040517f08c379a00000000000000000000000000000000000000000000000000000000081526004016106ce90610aff565b60405180910390fd5b348160040160008282546106eb9190610d83565b925050819055507fd1509d0d614d0c3e599471b10aa247cc85ce44879836c03502258b44cc12af0282343360405161072593929190610ccf565b60405180910390a15050565b82805461073d90610ec3565b90600052602060002090601f01602090048101928261075f57600085556107a6565b82601f1061077857805160ff19168380011785556107a6565b828001600101855582156107a6579182015b828111156107a557825182559160200191906001019061078a565b5b5090506107b391906107b7565b5090565b5b808211156107d05760008160009055506001016107b8565b5090565b60006107e76107e284610d37565b610d06565b9050828152602081018484840111156107ff57600080fd5b61080a848285610e81565b509392505050565b600082601f83011261082357600080fd5b81356108338482602086016107d4565b91505092915050565b60008135905061084b81610fdc565b92915050565b6000806000806080858703121561086757600080fd5b600085013567ffffffffffffffff81111561088157600080fd5b61088d87828801610812565b945050602085013567ffffffffffffffff8111156108aa57600080fd5b6108b687828801610812565b93505060406108c78782880161083c565b92505060606108d88782880161083c565b91505092959194509250565b6000602082840312156108f657600080fd5b60006109048482850161083c565b91505092915050565b61091681610e45565b82525050565b61092581610e33565b82525050565b600061093682610d67565b6109408185610d72565b9350610950818560208601610e90565b61095981610fcb565b840191505092915050565b6000610971602a83610d72565b91507f446f6e6174696f6e20616d6f756e74206d75737420626520677265617465722060008301527f7468616e207a65726f2e000000000000000000000000000000000000000000006020830152604082019050919050565b60006109d7601983610d72565b91507f46756e64696e6720676f616c206e6f7420726561636865642e000000000000006000830152602082019050919050565b6000610a17601883610d72565b91507f446561646c696e6520686173206e6f74207061737365642e00000000000000006000830152602082019050919050565b6000610a57601483610d72565b91507f446561646c696e6520686173207061737365642e0000000000000000000000006000830152602082019050919050565b6000610a97602a83610d72565b91507f4f6e6c79207468652070726f6a656374206f776e65722063616e20776974686460008301527f7261772066756e64732e000000000000000000000000000000000000000000006020830152604082019050919050565b610af981610e77565b82525050565b60006020820190508181036000830152610b1881610964565b9050919050565b60006020820190508181036000830152610b38816109ca565b9050919050565b60006020820190508181036000830152610b5881610a0a565b9050919050565b60006020820190508181036000830152610b7881610a4a565b9050919050565b60006020820190508181036000830152610b9881610a8a565b9050919050565b6000602082019050610bb46000830184610af0565b92915050565b600060c082019050610bcf6000830189610af0565b8181036020830152610be1818861092b565b90508181036040830152610bf5818761092b565b9050610c046060830186610af0565b610c116080830185610af0565b610c1e60a083018461091c565b979650505050505050565b600060e082019050610c3e600083018a610af0565b8181036020830152610c50818961092b565b90508181036040830152610c64818861092b565b9050610c736060830187610af0565b610c806080830186610af0565b610c8d60a0830185610af0565b610c9a60c083018461090d565b98975050505050505050565b6000604082019050610cbb6000830185610af0565b610cc86020830184610af0565b9392505050565b6000606082019050610ce46000830186610af0565b610cf16020830185610af0565b610cfe604083018461091c565b949350505050565b6000604051905081810181811067ffffffffffffffff82111715610d2d57610d2c610f9c565b5b8060405250919050565b600067ffffffffffffffff821115610d5257610d51610f9c565b5b601f19601f8301169050602081019050919050565b600081519050919050565b600082825260208201905092915050565b6000610d8e82610e77565b9150610d9983610e77565b9250827fffffffffffffffffffffffffffffffffffffffffffffffffffffffffffffffff03821115610dce57610dcd610f3e565b5b828201905092915050565b6000610de482610e77565b9150610def83610e77565b9250817fffffffffffffffffffffffffffffffffffffffffffffffffffffffffffffffff0483118215151615610e2857610e27610f3e565b5b828202905092915050565b6000610e3e82610e57565b9050919050565b6000610e5082610e57565b9050919050565b600073ffffffffffffffffffffffffffffffffffffffff82169050919050565b6000819050919050565b82818337600083830152505050565b60005b83811015610eae578082015181840152602081019050610e93565b83811115610ebd576000848401525b50505050565b60006002820490506001821680610edb57607f821691505b60208210811415610eef57610eee610f6d565b5b50919050565b6000610f0082610e77565b91507fffffffffffffffffffffffffffffffffffffffffffffffffffffffffffffffff821415610f3357610f32610f3e565b5b600182019050919050565b7f4e487b7100000000000000000000000000000000000000000000000000000000600052601160045260246000fd5b7f4e487b7100000000000000000000000000000000000000000000000000000000600052602260045260246000fd5b7f4e487b7100000000000000000000000000000000000000000000000000000000600052604160045260246000fd5b6000601f19601f8301169050919050565b610fe581610e77565b8114610ff057600080fd5b5056fea264697066735822122051d3dbf49d3856e98ec810c9062cf74024e1e9df1626e51cc8b53f849d3b31fe64736f6c63430008000033",
  "immutableReferences": {},
  "source": "// Crowdfunding.sol\r\npragma solidity ^0.8.0;\r\n\r\n\r\ncontract Crowdfunding {\r\n    struct Project {\r\n        uint id;\r\n        string name;\r\n        string description;\r\n        uint targetAmount;\r\n        uint currentAmount;\r\n        uint deadline;\r\n        address payable owner;\r\n    }\r\n\r\n    mapping(uint => Project) public projects;\r\n    uint public projectCount;\r\n\r\n    event ProjectCreated(\r\n        uint id,\r\n        string name,\r\n        string description,\r\n        uint targetAmount,\r\n        uint deadline,\r\n        address owner\r\n    );\r\n\r\n    event DonationReceived(uint projectId, uint amount, address donor);\r\n    event FundsWithdrawn(uint projectId, uint amount);\r\n\r\n    function createProject(string memory _name, string memory _description, uint _targetAmount, uint _durationInDays) public {\r\n        projectCount++;\r\n        projects[projectCount] = Project(\r\n            projectCount,\r\n            _name,\r\n            _description,\r\n            _targetAmount,\r\n            0,\r\n            block.timestamp + (_durationInDays * 1 days),\r\n            payable(msg.sender)\r\n        );\r\n        emit ProjectCreated(projectCount, _name, _description, _targetAmount, block.timestamp + (_durationInDays * 1 days), msg.sender);\r\n    }\r\n\r\n    function donate(uint _projectId) public payable {\r\n        Project storage project = projects[_projectId];\r\n        require(block.timestamp <= project.deadline, \"Deadline has passed.\");\r\n        require(msg.value > 0, \"Donation amount must be greater than zero.\");\r\n        \r\n        project.currentAmount += msg.value;\r\n        emit DonationReceived(_projectId, msg.value, msg.sender);\r\n    }\r\n\r\n    function withdrawFunds(uint _projectId) public {\r\n        Project storage project = projects[_projectId];\r\n        require(block.timestamp > project.deadline, \"Deadline has not passed.\");\r\n        require(msg.sender == project.owner, \"Only the project owner can withdraw funds.\");\r\n        require(project.currentAmount >= project.targetAmount, \"Funding goal not reached.\");\r\n\r\n        uint amount = project.currentAmount;\r\n        project.currentAmount = 0;\r\n        project.owner.transfer(amount);\r\n        emit FundsWithdrawn(_projectId, amount);\r\n    }\r\n}\r\n",
  "sourcePath": "C:\\Users\\HP\\crowdfunding-dapp\\contracts\\Crowdfunding.sol",
  "compiler": {
    "name": "solc",
    "version": "0.8.0+commit.c7dfd78e.Emscripten.clang"
  },
  "schemaVersion": "3.4.16",
  "updatedAt": "2024-06-17T16:09:01.097Z",
  "networkType": "ethereum",
  "devdoc": {
    "kind": "dev",
    "methods": {},
    "version": 1
  },
  "userdoc": {
    "kind": "user",
    "methods": {},
    "version": 1
  }
}